{
  "_format": "hh-sol-artifact-1",
  "contractName": "AssetToken",
  "sourceName": "solidity/contracts/assetToken.sol",
  "abi": [
    {
      "inputs": [
        {
          "internalType": "address",
          "name": "spender",
          "type": "address"
        },
        {
          "internalType": "uint256",
          "name": "allowance",
          "type": "uint256"
        },
        {
          "internalType": "uint256",
          "name": "needed",
          "type": "uint256"
        }
      ],
      "name": "ERC20InsufficientAllowance",
      "type": "error"
    },
    {
      "inputs": [
        {
          "internalType": "address",
          "name": "sender",
          "type": "address"
        },
        {
          "internalType": "uint256",
          "name": "balance",
          "type": "uint256"
        },
        {
          "internalType": "uint256",
          "name": "needed",
          "type": "uint256"
        }
      ],
      "name": "ERC20InsufficientBalance",
      "type": "error"
    },
    {
      "inputs": [
        {
          "internalType": "address",
          "name": "approver",
          "type": "address"
        }
      ],
      "name": "ERC20InvalidApprover",
      "type": "error"
    },
    {
      "inputs": [
        {
          "internalType": "address",
          "name": "receiver",
          "type": "address"
        }
      ],
      "name": "ERC20InvalidReceiver",
      "type": "error"
    },
    {
      "inputs": [
        {
          "internalType": "address",
          "name": "sender",
          "type": "address"
        }
      ],
      "name": "ERC20InvalidSender",
      "type": "error"
    },
    {
      "inputs": [
        {
          "internalType": "address",
          "name": "spender",
          "type": "address"
        }
      ],
      "name": "ERC20InvalidSpender",
      "type": "error"
    },
    {
      "inputs": [],
      "name": "InvalidInitialization",
      "type": "error"
    },
    {
      "inputs": [],
      "name": "NotInitializing",
      "type": "error"
    },
    {
      "anonymous": false,
      "inputs": [
        {
          "indexed": true,
          "internalType": "address",
          "name": "owner",
          "type": "address"
        },
        {
          "indexed": true,
          "internalType": "address",
          "name": "spender",
          "type": "address"
        },
        {
          "indexed": false,
          "internalType": "uint256",
          "name": "value",
          "type": "uint256"
        }
      ],
      "name": "Approval",
      "type": "event"
    },
    {
      "anonymous": false,
      "inputs": [
        {
          "indexed": false,
          "internalType": "address",
          "name": "_controller",
          "type": "address"
        },
        {
          "indexed": true,
          "internalType": "address",
          "name": "_tokenHolder",
          "type": "address"
        },
        {
          "indexed": false,
          "internalType": "uint256",
          "name": "_value",
          "type": "uint256"
        },
        {
          "indexed": false,
          "internalType": "bytes",
          "name": "_data",
          "type": "bytes"
        },
        {
          "indexed": false,
          "internalType": "bytes",
          "name": "_operatorData",
          "type": "bytes"
        }
      ],
      "name": "ControllerRedemption",
      "type": "event"
    },
    {
      "anonymous": false,
      "inputs": [
        {
          "indexed": false,
          "internalType": "address",
          "name": "_controller",
          "type": "address"
        },
        {
          "indexed": true,
          "internalType": "address",
          "name": "_from",
          "type": "address"
        },
        {
          "indexed": true,
          "internalType": "address",
          "name": "_to",
          "type": "address"
        },
        {
          "indexed": false,
          "internalType": "uint256",
          "name": "_value",
          "type": "uint256"
        },
        {
          "indexed": false,
          "internalType": "bytes",
          "name": "_data",
          "type": "bytes"
        },
        {
          "indexed": false,
          "internalType": "bytes",
          "name": "_operatorData",
          "type": "bytes"
        }
      ],
      "name": "ControllerTransfer",
      "type": "event"
    },
    {
      "anonymous": false,
      "inputs": [
        {
          "indexed": true,
          "internalType": "bytes32",
          "name": "_name",
          "type": "bytes32"
        },
        {
          "indexed": false,
          "internalType": "string",
          "name": "_uri",
          "type": "string"
        },
        {
          "indexed": false,
          "internalType": "bytes32",
          "name": "_documentHash",
          "type": "bytes32"
        }
      ],
      "name": "DocumentRemoved",
      "type": "event"
    },
    {
      "anonymous": false,
      "inputs": [
        {
          "indexed": true,
          "internalType": "bytes32",
          "name": "_name",
          "type": "bytes32"
        },
        {
          "indexed": false,
          "internalType": "string",
          "name": "_uri",
          "type": "string"
        },
        {
          "indexed": false,
          "internalType": "bytes32",
          "name": "_documentHash",
          "type": "bytes32"
        }
      ],
      "name": "DocumentUpdated",
      "type": "event"
    },
    {
      "anonymous": false,
      "inputs": [],
      "name": "FinalizedControllerFeature",
      "type": "event"
    },
    {
      "anonymous": false,
      "inputs": [
        {
          "indexed": false,
          "internalType": "uint64",
          "name": "version",
          "type": "uint64"
        }
      ],
      "name": "Initialized",
      "type": "event"
    },
    {
      "anonymous": false,
      "inputs": [
        {
          "indexed": true,
          "internalType": "address",
          "name": "_operator",
          "type": "address"
        },
        {
          "indexed": true,
          "internalType": "address",
          "name": "_to",
          "type": "address"
        },
        {
          "indexed": false,
          "internalType": "uint256",
          "name": "_value",
          "type": "uint256"
        },
        {
          "indexed": false,
          "internalType": "bytes",
          "name": "_data",
          "type": "bytes"
        }
      ],
      "name": "Issued",
      "type": "event"
    },
    {
      "anonymous": false,
      "inputs": [
        {
          "indexed": true,
          "internalType": "address",
          "name": "_operator",
          "type": "address"
        },
        {
          "indexed": true,
          "internalType": "address",
          "name": "_from",
          "type": "address"
        },
        {
          "indexed": false,
          "internalType": "uint256",
          "name": "_value",
          "type": "uint256"
        },
        {
          "indexed": false,
          "internalType": "bytes",
          "name": "_data",
          "type": "bytes"
        }
      ],
      "name": "Redeemed",
      "type": "event"
    },
    {
      "anonymous": false,
      "inputs": [
        {
          "indexed": true,
          "internalType": "address",
          "name": "from",
          "type": "address"
        },
        {
          "indexed": true,
          "internalType": "address",
          "name": "to",
          "type": "address"
        },
        {
          "indexed": false,
          "internalType": "uint256",
          "name": "value",
          "type": "uint256"
        }
      ],
      "name": "Transfer",
      "type": "event"
    },
    {
      "inputs": [
        {
          "internalType": "address",
          "name": "owner",
          "type": "address"
        },
        {
          "internalType": "address",
          "name": "spender",
          "type": "address"
        }
      ],
      "name": "allowance",
      "outputs": [
        {
          "internalType": "uint256",
          "name": "",
          "type": "uint256"
        }
      ],
      "stateMutability": "view",
      "type": "function"
    },
    {
      "inputs": [
        {
          "internalType": "address",
          "name": "spender",
          "type": "address"
        },
        {
          "internalType": "uint256",
          "name": "value",
          "type": "uint256"
        }
      ],
      "name": "approve",
      "outputs": [
        {
          "internalType": "bool",
          "name": "",
          "type": "bool"
        }
      ],
      "stateMutability": "nonpayable",
      "type": "function"
    },
    {
      "inputs": [
        {
          "internalType": "address",
          "name": "_controller",
          "type": "address"
        }
      ],
      "name": "assignController",
      "outputs": [],
      "stateMutability": "nonpayable",
      "type": "function"
    },
    {
      "inputs": [
        {
          "internalType": "address",
          "name": "account",
          "type": "address"
        }
      ],
      "name": "balanceOf",
      "outputs": [
        {
          "internalType": "uint256",
          "name": "",
          "type": "uint256"
        }
      ],
      "stateMutability": "view",
      "type": "function"
    },
    {
      "inputs": [
        {
          "internalType": "uint256",
          "name": "value",
          "type": "uint256"
        }
      ],
      "name": "burn",
      "outputs": [],
      "stateMutability": "nonpayable",
      "type": "function"
    },
    {
      "inputs": [
        {
          "internalType": "address",
          "name": "account",
          "type": "address"
        },
        {
          "internalType": "uint256",
          "name": "value",
          "type": "uint256"
        }
      ],
      "name": "burnFrom",
      "outputs": [],
      "stateMutability": "nonpayable",
      "type": "function"
    },
    {
      "inputs": [
        {
          "internalType": "address",
          "name": "_to",
          "type": "address"
        },
        {
          "internalType": "uint256",
          "name": "_value",
          "type": "uint256"
        },
        {
          "internalType": "bytes",
          "name": "_data",
          "type": "bytes"
        }
      ],
      "name": "canTransfer",
      "outputs": [
        {
          "internalType": "bool",
          "name": "",
          "type": "bool"
        },
        {
          "internalType": "uint256",
          "name": "",
          "type": "uint256"
        }
      ],
      "stateMutability": "view",
      "type": "function"
    },
    {
      "inputs": [
        {
          "internalType": "address",
          "name": "_from",
          "type": "address"
        },
        {
          "internalType": "address",
          "name": "_to",
          "type": "address"
        },
        {
          "internalType": "uint256",
          "name": "_value",
          "type": "uint256"
        },
        {
          "internalType": "bytes",
          "name": "_data",
          "type": "bytes"
        }
      ],
      "name": "canTransferFrom",
      "outputs": [
        {
          "internalType": "bool",
          "name": "",
          "type": "bool"
        },
        {
          "internalType": "uint256",
          "name": "",
          "type": "uint256"
        }
      ],
      "stateMutability": "view",
      "type": "function"
    },
    {
      "inputs": [],
      "name": "controller",
      "outputs": [
        {
          "internalType": "address",
          "name": "",
          "type": "address"
        }
      ],
      "stateMutability": "view",
      "type": "function"
    },
    {
      "inputs": [
        {
          "internalType": "address",
          "name": "_tokenHolder",
          "type": "address"
        },
        {
          "internalType": "uint256",
          "name": "_value",
          "type": "uint256"
        },
        {
          "internalType": "bytes",
          "name": "_data",
          "type": "bytes"
        },
        {
          "internalType": "bytes",
          "name": "_operatorData",
          "type": "bytes"
        }
      ],
      "name": "controllerRedeem",
      "outputs": [],
      "stateMutability": "nonpayable",
      "type": "function"
    },
    {
      "inputs": [
        {
          "internalType": "address",
          "name": "_from",
          "type": "address"
        },
        {
          "internalType": "address",
          "name": "_to",
          "type": "address"
        },
        {
          "internalType": "uint256",
          "name": "_value",
          "type": "uint256"
        },
        {
          "internalType": "bytes",
          "name": "_data",
          "type": "bytes"
        },
        {
          "internalType": "bytes",
          "name": "_operatorData",
          "type": "bytes"
        }
      ],
      "name": "controllerTransfer",
      "outputs": [],
      "stateMutability": "nonpayable",
      "type": "function"
    },
    {
      "inputs": [],
      "name": "decimals",
      "outputs": [
        {
          "internalType": "uint8",
          "name": "",
          "type": "uint8"
        }
      ],
      "stateMutability": "view",
      "type": "function"
    },
    {
      "inputs": [],
      "name": "finalizeControllable",
      "outputs": [],
      "stateMutability": "nonpayable",
      "type": "function"
    },
    {
      "inputs": [],
      "name": "getAllDocuments",
      "outputs": [
        {
          "internalType": "bytes32[]",
          "name": "",
          "type": "bytes32[]"
        }
      ],
      "stateMutability": "view",
      "type": "function"
    },
    {
      "inputs": [
        {
          "internalType": "bytes32",
          "name": "_name",
          "type": "bytes32"
        }
      ],
      "name": "getDocument",
      "outputs": [
        {
          "internalType": "string",
          "name": "",
          "type": "string"
        },
        {
          "internalType": "bytes32",
          "name": "",
          "type": "bytes32"
        },
        {
          "internalType": "uint256",
          "name": "",
          "type": "uint256"
        }
      ],
      "stateMutability": "view",
      "type": "function"
    },
    {
      "inputs": [
        {
          "internalType": "bytes32",
          "name": "_salt",
          "type": "bytes32"
        },
        {
          "internalType": "string",
          "name": "_tokenName",
          "type": "string"
        },
        {
          "internalType": "string",
          "name": "_tokenSymbol",
          "type": "string"
        },
        {
          "internalType": "address",
          "name": "_assetAdmin",
          "type": "address"
        },
        {
          "internalType": "address",
          "name": "_controller",
          "type": "address"
        },
        {
          "internalType": "address",
          "name": "interchainTokenServiceAddress",
          "type": "address"
        },
        {
          "internalType": "uint256",
          "name": "_tokenOfferingPrice",
          "type": "uint256"
        }
      ],
      "name": "initialize",
      "outputs": [],
      "stateMutability": "nonpayable",
      "type": "function"
    },
    {
      "inputs": [
        {
          "internalType": "string",
          "name": "destinationChain",
          "type": "string"
        },
        {
          "internalType": "bytes",
          "name": "recipient",
          "type": "bytes"
        },
        {
          "internalType": "uint256",
          "name": "amount",
          "type": "uint256"
        },
        {
          "internalType": "bytes",
          "name": "metadata",
          "type": "bytes"
        }
      ],
      "name": "interchainTransfer",
      "outputs": [],
      "stateMutability": "payable",
      "type": "function"
    },
    {
      "inputs": [
        {
          "internalType": "address",
          "name": "sender",
          "type": "address"
        },
        {
          "internalType": "string",
          "name": "destinationChain",
          "type": "string"
        },
        {
          "internalType": "bytes",
          "name": "recipient",
          "type": "bytes"
        },
        {
          "internalType": "uint256",
          "name": "amount",
          "type": "uint256"
        },
        {
          "internalType": "bytes",
          "name": "metadata",
          "type": "bytes"
        }
      ],
      "name": "interchainTransferFrom",
      "outputs": [],
      "stateMutability": "payable",
      "type": "function"
    },
    {
      "inputs": [],
      "name": "isControllable",
      "outputs": [
        {
          "internalType": "bool",
          "name": "",
          "type": "bool"
        }
      ],
      "stateMutability": "view",
      "type": "function"
    },
    {
      "inputs": [],
      "name": "isIssuable",
      "outputs": [
        {
          "internalType": "bool",
          "name": "",
          "type": "bool"
        }
      ],
      "stateMutability": "view",
      "type": "function"
    },
    {
      "inputs": [
        {
          "internalType": "address",
          "name": "_tokenHolder",
          "type": "address"
        },
        {
          "internalType": "uint256",
          "name": "_value",
          "type": "uint256"
        },
        {
          "internalType": "bytes",
          "name": "_data",
          "type": "bytes"
        }
      ],
      "name": "issue",
      "outputs": [],
      "stateMutability": "nonpayable",
      "type": "function"
    },
    {
      "inputs": [],
      "name": "name",
      "outputs": [
        {
          "internalType": "string",
          "name": "",
          "type": "string"
        }
      ],
      "stateMutability": "view",
      "type": "function"
    },
    {
      "inputs": [
        {
          "internalType": "uint256",
          "name": "_value",
          "type": "uint256"
        },
        {
          "internalType": "bytes",
          "name": "_data",
          "type": "bytes"
        }
      ],
      "name": "redeem",
      "outputs": [],
      "stateMutability": "nonpayable",
      "type": "function"
    },
    {
      "inputs": [
        {
          "internalType": "address",
          "name": "_tokenHolder",
          "type": "address"
        },
        {
          "internalType": "uint256",
          "name": "_value",
          "type": "uint256"
        },
        {
          "internalType": "bytes",
          "name": "_data",
          "type": "bytes"
        }
      ],
      "name": "redeemFrom",
      "outputs": [],
      "stateMutability": "nonpayable",
      "type": "function"
    },
    {
      "inputs": [
        {
          "internalType": "bytes32",
          "name": "_name",
          "type": "bytes32"
        }
      ],
      "name": "removeDocument",
      "outputs": [],
      "stateMutability": "nonpayable",
      "type": "function"
    },
    {
      "inputs": [],
      "name": "service",
      "outputs": [
        {
          "internalType": "contract IInterchainTokenService",
          "name": "",
          "type": "address"
        }
      ],
      "stateMutability": "view",
      "type": "function"
    },
    {
      "inputs": [
        {
          "internalType": "bytes32",
          "name": "_name",
          "type": "bytes32"
        },
        {
          "internalType": "string",
          "name": "_uri",
          "type": "string"
        },
        {
          "internalType": "bytes32",
          "name": "_documentHash",
          "type": "bytes32"
        }
      ],
      "name": "setDocument",
      "outputs": [],
      "stateMutability": "nonpayable",
      "type": "function"
    },
    {
      "inputs": [
        {
          "internalType": "address",
          "name": "_tokenManager",
          "type": "address"
        }
      ],
      "name": "setTokenManager",
      "outputs": [],
      "stateMutability": "nonpayable",
      "type": "function"
    },
    {
      "inputs": [],
      "name": "symbol",
      "outputs": [
        {
          "internalType": "string",
          "name": "",
          "type": "string"
        }
      ],
      "stateMutability": "view",
      "type": "function"
    },
    {
      "inputs": [],
      "name": "tokenManager",
      "outputs": [
        {
          "internalType": "contract ITokenManager",
          "name": "",
          "type": "address"
        }
      ],
      "stateMutability": "view",
      "type": "function"
    },
    {
      "inputs": [
        {
          "internalType": "address",
          "name": "_buyer",
          "type": "address"
        },
        {
          "internalType": "uint256",
          "name": "_value",
          "type": "uint256"
        },
        {
          "internalType": "bytes",
          "name": "_data",
          "type": "bytes"
        }
      ],
      "name": "tokenOffering",
      "outputs": [],
      "stateMutability": "nonpayable",
      "type": "function"
    },
    {
      "inputs": [],
      "name": "tokenOfferingPrice",
      "outputs": [
        {
          "internalType": "uint256",
          "name": "",
          "type": "uint256"
        }
      ],
      "stateMutability": "view",
      "type": "function"
    },
    {
      "inputs": [],
      "name": "totalSupply",
      "outputs": [
        {
          "internalType": "uint256",
          "name": "",
          "type": "uint256"
        }
      ],
      "stateMutability": "view",
      "type": "function"
    },
    {
      "inputs": [
        {
          "internalType": "address",
          "name": "to",
          "type": "address"
        },
        {
          "internalType": "uint256",
          "name": "value",
          "type": "uint256"
        }
      ],
      "name": "transfer",
      "outputs": [
        {
          "internalType": "bool",
          "name": "",
          "type": "bool"
        }
      ],
      "stateMutability": "nonpayable",
      "type": "function"
    },
    {
      "inputs": [
        {
          "internalType": "address",
          "name": "from",
          "type": "address"
        },
        {
          "internalType": "address",
          "name": "to",
          "type": "address"
        },
        {
          "internalType": "uint256",
          "name": "value",
          "type": "uint256"
        }
      ],
      "name": "transferFrom",
      "outputs": [
        {
          "internalType": "bool",
          "name": "",
          "type": "bool"
        }
      ],
      "stateMutability": "nonpayable",
      "type": "function"
    },
    {
      "inputs": [
        {
          "internalType": "address",
          "name": "_from",
          "type": "address"
        },
        {
          "internalType": "address",
          "name": "_to",
          "type": "address"
        },
        {
          "internalType": "uint256",
          "name": "_value",
          "type": "uint256"
        },
        {
          "internalType": "bytes",
          "name": "_data",
          "type": "bytes"
        }
      ],
      "name": "transferFromWithData",
      "outputs": [],
      "stateMutability": "nonpayable",
      "type": "function"
    },
    {
      "inputs": [
        {
          "internalType": "address",
          "name": "_to",
          "type": "address"
        },
        {
          "internalType": "uint256",
          "name": "_value",
          "type": "uint256"
        },
        {
          "internalType": "bytes",
          "name": "_data",
          "type": "bytes"
        }
      ],
      "name": "transferWithData",
      "outputs": [],
      "stateMutability": "nonpayable",
      "type": "function"
    }
  ],
  "bytecode": "0x608060405234801561001057600080fd5b5061460a806100206000396000f3fe60806040526004361061021a5760003560e01c80637cb2b79c11610123578063bc0ba3c5116100ab578063e77c646d1161006f578063e77c646d146107cb578063ec1bc1ac146107f4578063ee532f311461081d578063f282527a14610846578063f77c47911461086f5761021a565b8063bc0ba3c5146106f3578063bd7bbc301461070f578063c35018481461073a578063d598d4c914610763578063dd62ed3e1461078e5761021a565b8063a213934f116100f2578063a213934f1461061b578063a60fee3714610632578063a9059cbb1461064e578063b10d6b411461068b578063bb3acde9146106ca5761021a565b80637cb2b79c1461057357806395d89b411461059c5780639675193c146105c75780639fa5f50b146105f05761021a565b80632bc6acc3116101a65780634c783bf5116101755780634c783bf51461049057806352e46074146104bb57806370a08231146104e457806377d9e3b71461052157806379cc67901461054a5761021a565b80632bc6acc3146103e85780632f1cae8514610411578063313ce5671461043c57806342966c68146104675761021a565b806318160ddd116101ed57806318160ddd146102ee5780631badb25c1461031957806323b872dd146103575780632535f762146103945780632a709b14146103bd5761021a565b8063010648ca1461021f57806306fdde0314610248578063095ea7b314610273578063122eb575146102b0575b600080fd5b34801561022b57600080fd5b5061024660048036038101906102419190612d3e565b61089a565b005b34801561025457600080fd5b5061025d610b00565b60405161026a9190612e42565b60405180910390f35b34801561027f57600080fd5b5061029a60048036038101906102959190612ef8565b610ba1565b6040516102a79190612f53565b60405180910390f35b3480156102bc57600080fd5b506102d760048036038101906102d29190612fc4565b610bc4565b6040516102e592919061305b565b60405180910390f35b3480156102fa57600080fd5b50610303610c9a565b6040516103109190613084565b60405180910390f35b34801561032557600080fd5b50610340600480360381019061033b919061309f565b610cb2565b60405161034e92919061305b565b60405180910390f35b34801561036357600080fd5b5061037e60048036038101906103799190613113565b610d5f565b60405161038b9190612f53565b60405180910390f35b3480156103a057600080fd5b506103bb60048036038101906103b6919061309f565b610d8e565b005b3480156103c957600080fd5b506103d2610d9f565b6040516103df91906131c5565b60405180910390f35b3480156103f457600080fd5b5061040f600480360381019061040a91906131e0565b610dc5565b005b34801561041d57600080fd5b50610426610e89565b6040516104339190612f53565b60405180910390f35b34801561044857600080fd5b50610451610e9f565b60405161045e91906132a3565b60405180910390f35b34801561047357600080fd5b5061048e600480360381019061048991906132be565b610ea8565b005b34801561049c57600080fd5b506104a5610ebc565b6040516104b29190612f53565b60405180910390f35b3480156104c757600080fd5b506104e260048036038101906104dd919061341b565b610f15565b005b3480156104f057600080fd5b5061050b600480360381019061050691906134f5565b6111d9565b6040516105189190613084565b60405180910390f35b34801561052d57600080fd5b506105486004803603810190610543919061309f565b611230565b005b34801561055657600080fd5b50610571600480360381019061056c9190612ef8565b61129c565b005b34801561057f57600080fd5b5061059a600480360381019061059591906134f5565b6112bc565b005b3480156105a857600080fd5b506105b16113b2565b6040516105be9190612e42565b60405180910390f35b3480156105d357600080fd5b506105ee60048036038101906105e9919061309f565b611453565b005b3480156105fc57600080fd5b506106056114cc565b60405161061291906135e0565b60405180910390f35b34801561062757600080fd5b50610630611524565b005b61064c60048036038101906106479190613602565b6116d7565b005b34801561065a57600080fd5b5061067560048036038101906106709190612ef8565b61187c565b6040516106829190612f53565b60405180910390f35b34801561069757600080fd5b506106b260048036038101906106ad91906136de565b61189f565b6040516106c19392919061371a565b60405180910390f35b3480156106d657600080fd5b506106f160048036038101906106ec919061309f565b611981565b005b61070d60048036038101906107089190613758565b611a45565b005b34801561071b57600080fd5b50610724611ba2565b6040516107319190613084565b60405180910390f35b34801561074657600080fd5b50610761600480360381019061075c91906136de565b611ba8565b005b34801561076f57600080fd5b50610778611d51565b6040516107859190613842565b60405180910390f35b34801561079a57600080fd5b506107b560048036038101906107b0919061385d565b611d77565b6040516107c29190613084565b60405180910390f35b3480156107d757600080fd5b506107f260048036038101906107ed919061389d565b611e0c565b005b34801561080057600080fd5b5061081b600480360381019061081691906134f5565b611e85565b005b34801561082957600080fd5b50610844600480360381019061083f9190612fc4565b61200b565b005b34801561085257600080fd5b5061086d600480360381019061086891906138fd565b61201e565b005b34801561087b57600080fd5b506108846120fb565b60405161089191906139c8565b60405180910390f35b600060019054906101000a900473ffffffffffffffffffffffffffffffffffffffff1673ffffffffffffffffffffffffffffffffffffffff163373ffffffffffffffffffffffffffffffffffffffff1614806109435750600160009054906101000a900473ffffffffffffffffffffffffffffffffffffffff1673ffffffffffffffffffffffffffffffffffffffff163373ffffffffffffffffffffffffffffffffffffffff16145b61094c57600080fd5b6000801b8403610991576040517f08c379a000000000000000000000000000000000000000000000000000000000815260040161098890613a2f565b60405180910390fd5b600083839050116109d7576040517f08c379a00000000000000000000000000000000000000000000000000000000081526004016109ce90613a9b565b60405180910390fd5b6000600660008681526020019081526020016000206001015403610a1f5760078490806001815401808255809150506001900390600052602060002001600090919091909150555b604051806060016040528082815260200142815260200184848080601f016020809104026020016040519081016040528093929190818152602001838380828437600081840152601f19601f820116905080830192505050505050508152506006600086815260200190815260200160002060008201518160000155602082015181600101556040820151816002019081610aba9190613cbd565b50905050837fb4c22d60cd550a815744f04e3ff5278bf19684565ee00e2b084041b6024bd6f6848484604051610af293929190613dbc565b60405180910390a250505050565b60606000610b0c612121565b9050806003018054610b1d90613aea565b80601f0160208091040260200160405190810160405280929190818152602001828054610b4990613aea565b8015610b965780601f10610b6b57610100808354040283529160200191610b96565b820191906000526020600020905b815481529060010190602001808311610b7957829003601f168201915b505050505091505090565b600080610bac612149565b9050610bb9818585612151565b600191505092915050565b600080600073ffffffffffffffffffffffffffffffffffffffff168673ffffffffffffffffffffffffffffffffffffffff1603610c08576000605791509150610c90565b6000610c13336111d9565b905085811015610c2b57600060529250925050610c90565b6000610c36886111d9565b90506000610c448289612163565b50905080610c5c576000605094509450505050610c90565b6000610c688b33611d77565b905080891115610c8357600060539550955050505050610c90565b6001605195509550505050505b9550959350505050565b600080610ca5612121565b9050806002015491505090565b600080600073ffffffffffffffffffffffffffffffffffffffff168673ffffffffffffffffffffffffffffffffffffffff1603610cf6576000605791509150610d56565b6000610d01336111d9565b905085811015610d1957600060529250925050610d56565b6000610d24886111d9565b90506000610d328289612163565b50905080610d4a576000605094509450505050610d56565b60016051945094505050505b94509492505050565b600080610d6a612149565b9050610d77858285612192565b610d82858585612226565b60019150509392505050565b610d99338585612226565b50505050565b600460009054906101000a900473ffffffffffffffffffffffffffffffffffffffff1681565b600360009054906101000a900473ffffffffffffffffffffffffffffffffffffffff1673ffffffffffffffffffffffffffffffffffffffff163373ffffffffffffffffffffffffffffffffffffffff1614610e1f57600080fd5b610e29868661231a565b8573ffffffffffffffffffffffffffffffffffffffff167f876b7cb47aa150b3a5516188b19ed308752ad4d0ae9a702543353b78163f7589338787878787604051610e7996959493929190613e2c565b60405180910390a2505050505050565b60008060009054906101000a900460ff16905090565b60006012905090565b610eb9610eb3612149565b8261231a565b50565b60008073ffffffffffffffffffffffffffffffffffffffff16600360009054906101000a900473ffffffffffffffffffffffffffffffffffffffff1673ffffffffffffffffffffffffffffffffffffffff161415905090565b6000610f1f61239c565b905060008160000160089054906101000a900460ff1615905060008260000160009054906101000a900467ffffffffffffffff1690506000808267ffffffffffffffff16148015610f6d5750825b9050600060018367ffffffffffffffff16148015610fa2575060003073ffffffffffffffffffffffffffffffffffffffff163b145b905081158015610fb0575080155b15610fe7576040517ff92ee8a900000000000000000000000000000000000000000000000000000000815260040160405180910390fd5b60018560000160006101000a81548167ffffffffffffffff021916908367ffffffffffffffff16021790555083156110375760018560000160086101000a81548160ff0219169083151502179055505b88600060016101000a81548173ffffffffffffffffffffffffffffffffffffffff021916908373ffffffffffffffffffffffffffffffffffffffff16021790555033600160006101000a81548173ffffffffffffffffffffffffffffffffffffffff021916908373ffffffffffffffffffffffffffffffffffffffff1602179055506110c38b8b6123c4565b60016000806101000a81548160ff0219169083151502179055508560028190555087600360006101000a81548173ffffffffffffffffffffffffffffffffffffffff021916908373ffffffffffffffffffffffffffffffffffffffff16021790555086600560006101000a81548173ffffffffffffffffffffffffffffffffffffffff021916908373ffffffffffffffffffffffffffffffffffffffff16021790555061116f8c6123da565b83156111cb5760008560000160086101000a81548160ff0219169083151502179055507fc7f505b2f371ae2175ee4913f4499e1f2633a7b5936321eed1cdaeb6115181d260016040516111c29190613ed2565b60405180910390a15b505050505050505050505050565b6000806111e4612121565b90508060000160008473ffffffffffffffffffffffffffffffffffffffff1673ffffffffffffffffffffffffffffffffffffffff16815260200190815260200160002054915050919050565b600160009054906101000a900473ffffffffffffffffffffffffffffffffffffffff1673ffffffffffffffffffffffffffffffffffffffff163373ffffffffffffffffffffffffffffffffffffffff161461128a57600080fd5b61129684848484612628565b50505050565b6112ae826112a8612149565b83612192565b6112b8828261231a565b5050565b600060019054906101000a900473ffffffffffffffffffffffffffffffffffffffff1673ffffffffffffffffffffffffffffffffffffffff163373ffffffffffffffffffffffffffffffffffffffff1614806113655750600160009054906101000a900473ffffffffffffffffffffffffffffffffffffffff1673ffffffffffffffffffffffffffffffffffffffff163373ffffffffffffffffffffffffffffffffffffffff16145b61136e57600080fd5b80600460006101000a81548173ffffffffffffffffffffffffffffffffffffffff021916908373ffffffffffffffffffffffffffffffffffffffff16021790555050565b606060006113be612121565b90508060040180546113cf90613aea565b80601f01602080910402602001604051908101604052809291908181526020018280546113fb90613aea565b80156114485780601f1061141d57610100808354040283529160200191611448565b820191906000526020600020905b81548152906001019060200180831161142b57829003601f168201915b505050505091505090565b61145d848461129c565b8373ffffffffffffffffffffffffffffffffffffffff163373ffffffffffffffffffffffffffffffffffffffff167fb7d0d6b60740753e9f16692a2f479472a1385aec2420fa43225b02f2ffa1afe78585856040516114be93929190613eed565b60405180910390a350505050565b6060600780548060200260200160405190810160405280929190818152602001828054801561151a57602002820191906000526020600020905b815481526020019060010190808311611506575b5050505050905090565b600060019054906101000a900473ffffffffffffffffffffffffffffffffffffffff1673ffffffffffffffffffffffffffffffffffffffff163373ffffffffffffffffffffffffffffffffffffffff1614806115cd5750600160009054906101000a900473ffffffffffffffffffffffffffffffffffffffff1673ffffffffffffffffffffffffffffffffffffffff163373ffffffffffffffffffffffffffffffffffffffff16145b6115d657600080fd5b600073ffffffffffffffffffffffffffffffffffffffff16600360009054906101000a900473ffffffffffffffffffffffffffffffffffffffff1673ffffffffffffffffffffffffffffffffffffffff1603611667576040517f08c379a000000000000000000000000000000000000000000000000000000000815260040161165e90613f6b565b60405180910390fd5b6000600360006101000a81548173ffffffffffffffffffffffffffffffffffffffff021916908373ffffffffffffffffffffffffffffffffffffffff1602179055507f777c956560861bdf04a77b9eb7199e6bc3f770f1c569970f35ac416b86d8d87260405160405180910390a1565b600060019054906101000a900473ffffffffffffffffffffffffffffffffffffffff1673ffffffffffffffffffffffffffffffffffffffff163373ffffffffffffffffffffffffffffffffffffffff1614806117805750600160009054906101000a900473ffffffffffffffffffffffffffffffffffffffff1673ffffffffffffffffffffffffffffffffffffffff163373ffffffffffffffffffffffffffffffffffffffff16145b61178957600080fd5b60006117958933611d77565b90507fffffffffffffffffffffffffffffffffffffffffffffffffffffffffffffffff81146117d5576117d4893386846117cf9190613fba565b612151565b5b600460009054906101000a900473ffffffffffffffffffffffffffffffffffffffff1673ffffffffffffffffffffffffffffffffffffffff1663c6e3c970348b8b8b8b8b8b8b8b6040518a63ffffffff1660e01b815260040161183f989796959493929190613fee565b6000604051808303818588803b15801561185857600080fd5b505af115801561186c573d6000803e3d6000fd5b5050505050505050505050505050565b600080611887612149565b9050611894818585612226565b600191505092915050565b606060008060066000858152602001908152602001600020600201600660008681526020019081526020016000206000015460066000878152602001908152602001600020600101548280546118f490613aea565b80601f016020809104026020016040519081016040528092919081815260200182805461192090613aea565b801561196d5780601f106119425761010080835404028352916020019161196d565b820191906000526020600020905b81548152906001019060200180831161195057829003601f168201915b505050505092509250925092509193909250565b600060019054906101000a900473ffffffffffffffffffffffffffffffffffffffff1673ffffffffffffffffffffffffffffffffffffffff163373ffffffffffffffffffffffffffffffffffffffff161480611a2a5750600160009054906101000a900473ffffffffffffffffffffffffffffffffffffffff1673ffffffffffffffffffffffffffffffffffffffff163373ffffffffffffffffffffffffffffffffffffffff16145b611a3357600080fd5b611a3f84848484612628565b50505050565b600060019054906101000a900473ffffffffffffffffffffffffffffffffffffffff1673ffffffffffffffffffffffffffffffffffffffff163373ffffffffffffffffffffffffffffffffffffffff161480611aee5750600160009054906101000a900473ffffffffffffffffffffffffffffffffffffffff1673ffffffffffffffffffffffffffffffffffffffff163373ffffffffffffffffffffffffffffffffffffffff16145b611af757600080fd5b6000339050600460009054906101000a900473ffffffffffffffffffffffffffffffffffffffff1673ffffffffffffffffffffffffffffffffffffffff1663c6e3c97034838b8b8b8b8b8b8b6040518a63ffffffff1660e01b8152600401611b66989796959493929190613fee565b6000604051808303818588803b158015611b7f57600080fd5b505af1158015611b93573d6000803e3d6000fd5b50505050505050505050505050565b60025481565b600060019054906101000a900473ffffffffffffffffffffffffffffffffffffffff1673ffffffffffffffffffffffffffffffffffffffff163373ffffffffffffffffffffffffffffffffffffffff161480611c515750600160009054906101000a900473ffffffffffffffffffffffffffffffffffffffff1673ffffffffffffffffffffffffffffffffffffffff163373ffffffffffffffffffffffffffffffffffffffff16145b611c5a57600080fd5b6000600660008381526020019081526020016000206001015403611cb3576040517f08c379a0000000000000000000000000000000000000000000000000000000008152600401611caa906140a8565b60405180910390fd5b600660008281526020019081526020016000206000808201600090556001820160009055600282016000611ce79190612c32565b5050807f3d9bba27d3e360d8c80645beed7e991454a8271bf6f269a24f7782be0f0d0654600660008481526020019081526020016000206002016006600085815260200190815260200160002060000154604051611d4692919061414c565b60405180910390a250565b600560009054906101000a900473ffffffffffffffffffffffffffffffffffffffff1681565b600080611d82612121565b90508060010160008573ffffffffffffffffffffffffffffffffffffffff1673ffffffffffffffffffffffffffffffffffffffff16815260200190815260200160002060008473ffffffffffffffffffffffffffffffffffffffff1673ffffffffffffffffffffffffffffffffffffffff1681526020019081526020016000205491505092915050565b611e16338461231a565b3373ffffffffffffffffffffffffffffffffffffffff16600073ffffffffffffffffffffffffffffffffffffffff167fb7d0d6b60740753e9f16692a2f479472a1385aec2420fa43225b02f2ffa1afe7858585604051611e7893929190613eed565b60405180910390a3505050565b600060019054906101000a900473ffffffffffffffffffffffffffffffffffffffff1673ffffffffffffffffffffffffffffffffffffffff163373ffffffffffffffffffffffffffffffffffffffff161480611f2e5750600160009054906101000a900473ffffffffffffffffffffffffffffffffffffffff1673ffffffffffffffffffffffffffffffffffffffff163373ffffffffffffffffffffffffffffffffffffffff16145b611f3757600080fd5b600360009054906101000a900473ffffffffffffffffffffffffffffffffffffffff1673ffffffffffffffffffffffffffffffffffffffff168173ffffffffffffffffffffffffffffffffffffffff1603611fc7576040517f08c379a0000000000000000000000000000000000000000000000000000000008152600401611fbe906141c8565b60405180910390fd5b80600360006101000a81548173ffffffffffffffffffffffffffffffffffffffff021916908373ffffffffffffffffffffffffffffffffffffffff16021790555050565b612016858585610d5f565b505050505050565b600360009054906101000a900473ffffffffffffffffffffffffffffffffffffffff1673ffffffffffffffffffffffffffffffffffffffff163373ffffffffffffffffffffffffffffffffffffffff161461207857600080fd5b612083878787612226565b8573ffffffffffffffffffffffffffffffffffffffff168773ffffffffffffffffffffffffffffffffffffffff167f6bf62b4b9c7b768275122bf70d429efc398a056d669b1efdf6c3976346246d7d3388888888886040516120ea96959493929190613e2c565b60405180910390a350505050505050565b600360009054906101000a900473ffffffffffffffffffffffffffffffffffffffff1681565b60007f52c63247e1f47db19d5ce0460030c497f067ca4cebf71ba98eeadabe20bace00905090565b600033905090565b61215e83838360016126ee565b505050565b600080600083850190508481101561218257600080925092505061218b565b60018192509250505b9250929050565b600061219e8484611d77565b90507fffffffffffffffffffffffffffffffffffffffffffffffffffffffffffffffff81146122205781811015612210578281836040517ffb8f41b2000000000000000000000000000000000000000000000000000000008152600401612207939291906141e8565b60405180910390fd5b61221f848484840360006126ee565b5b50505050565b600073ffffffffffffffffffffffffffffffffffffffff168373ffffffffffffffffffffffffffffffffffffffff16036122985760006040517f96c6fd1e00000000000000000000000000000000000000000000000000000000815260040161228f91906139c8565b60405180910390fd5b600073ffffffffffffffffffffffffffffffffffffffff168273ffffffffffffffffffffffffffffffffffffffff160361230a5760006040517fec442f0500000000000000000000000000000000000000000000000000000000815260040161230191906139c8565b60405180910390fd5b6123158383836128d4565b505050565b600073ffffffffffffffffffffffffffffffffffffffff168273ffffffffffffffffffffffffffffffffffffffff160361238c5760006040517f96c6fd1e00000000000000000000000000000000000000000000000000000000815260040161238391906139c8565b60405180910390fd5b612398826000836128d4565b5050565b60007ff0c57e16840df040f15088dc2f81fe391c3923bec73e23a9662efc9c229c6a00905090565b6123cc612b13565b6123d68282612b53565b5050565b6000600560009054906101000a900473ffffffffffffffffffffffffffffffffffffffff1673ffffffffffffffffffffffffffffffffffffffff16631450b5463360405160200161242b9190614267565b604051602081830303815290604052306040518363ffffffff1660e01b81526004016124589291906142c6565b600060405180830381865afa158015612475573d6000803e3d6000fd5b505050506040513d6000823e3d601f19601f8201168201806040525081019061249e9190614397565b90506000600560009054906101000a900473ffffffffffffffffffffffffffffffffffffffff1673ffffffffffffffffffffffffffffffffffffffff166372addb94846001856040518463ffffffff1660e01b815260040161250293929190614457565b6020604051808303816000875af1158015612521573d6000803e3d6000fd5b505050506040513d601f19601f8201168201806040525081019061254591906144aa565b9050600560009054906101000a900473ffffffffffffffffffffffffffffffffffffffff1673ffffffffffffffffffffffffffffffffffffffff16633383bfe1826040518263ffffffff1660e01b81526004016125a291906144d7565b602060405180830381865afa1580156125bf573d6000803e3d6000fd5b505050506040513d601f19601f820116820180604052508101906125e39190614507565b600460006101000a81548173ffffffffffffffffffffffffffffffffffffffff021916908373ffffffffffffffffffffffffffffffffffffffff160217905550505050565b60008054906101000a900460ff16612675576040517f08c379a000000000000000000000000000000000000000000000000000000000815260040161266c90614580565b60405180910390fd5b61267f8484612b90565b8373ffffffffffffffffffffffffffffffffffffffff163373ffffffffffffffffffffffffffffffffffffffff167f0e9905d62635f049c2f4e11678ebf9dc3d1f8c4a653e290759b772e47ba00d008585856040516126e093929190613eed565b60405180910390a350505050565b60006126f8612121565b9050600073ffffffffffffffffffffffffffffffffffffffff168573ffffffffffffffffffffffffffffffffffffffff160361276c5760006040517fe602df0500000000000000000000000000000000000000000000000000000000815260040161276391906139c8565b60405180910390fd5b600073ffffffffffffffffffffffffffffffffffffffff168473ffffffffffffffffffffffffffffffffffffffff16036127de5760006040517f94280d620000000000000000000000000000000000000000000000000000000081526004016127d591906139c8565b60405180910390fd5b828160010160008773ffffffffffffffffffffffffffffffffffffffff1673ffffffffffffffffffffffffffffffffffffffff16815260200190815260200160002060008673ffffffffffffffffffffffffffffffffffffffff1673ffffffffffffffffffffffffffffffffffffffff1681526020019081526020016000208190555081156128cd578373ffffffffffffffffffffffffffffffffffffffff168573ffffffffffffffffffffffffffffffffffffffff167f8c5be1e5ebec7d5bd14f71427d1e84f3dd0314c0f7b2291e5b200ac8c7c3b925856040516128c49190613084565b60405180910390a35b5050505050565b60006128de612121565b9050600073ffffffffffffffffffffffffffffffffffffffff168473ffffffffffffffffffffffffffffffffffffffff1603612934578181600201600082825461292891906145a0565b92505081905550612a0d565b60008160000160008673ffffffffffffffffffffffffffffffffffffffff1673ffffffffffffffffffffffffffffffffffffffff168152602001908152602001600020549050828110156129c3578481846040517fe450d38c0000000000000000000000000000000000000000000000000000000081526004016129ba939291906141e8565b60405180910390fd5b8281038260000160008773ffffffffffffffffffffffffffffffffffffffff1673ffffffffffffffffffffffffffffffffffffffff16815260200190815260200160002081905550505b600073ffffffffffffffffffffffffffffffffffffffff168373ffffffffffffffffffffffffffffffffffffffff1603612a5857818160020160008282540392505081905550612aa8565b818160000160008573ffffffffffffffffffffffffffffffffffffffff1673ffffffffffffffffffffffffffffffffffffffff168152602001908152602001600020600082825401925050819055505b8273ffffffffffffffffffffffffffffffffffffffff168473ffffffffffffffffffffffffffffffffffffffff167fddf252ad1be2c89b69c2b068fc378daa952ba7f163c4a11628f55a4df523b3ef84604051612b059190613084565b60405180910390a350505050565b612b1b612c12565b612b51576040517fd7e6bcf800000000000000000000000000000000000000000000000000000000815260040160405180910390fd5b565b612b5b612b13565b6000612b65612121565b905082816003019081612b789190613cbd565b5081816004019081612b8a9190613cbd565b50505050565b600073ffffffffffffffffffffffffffffffffffffffff168273ffffffffffffffffffffffffffffffffffffffff1603612c025760006040517fec442f05000000000000000000000000000000000000000000000000000000008152600401612bf991906139c8565b60405180910390fd5b612c0e600083836128d4565b5050565b6000612c1c61239c565b60000160089054906101000a900460ff16905090565b508054612c3e90613aea565b6000825580601f10612c505750612c6f565b601f016020900490600052602060002090810190612c6e9190612c72565b5b50565b5b80821115612c8b576000816000905550600101612c73565b5090565b6000604051905090565b600080fd5b600080fd5b6000819050919050565b612cb681612ca3565b8114612cc157600080fd5b50565b600081359050612cd381612cad565b92915050565b600080fd5b600080fd5b600080fd5b60008083601f840112612cfe57612cfd612cd9565b5b8235905067ffffffffffffffff811115612d1b57612d1a612cde565b5b602083019150836001820283011115612d3757612d36612ce3565b5b9250929050565b60008060008060608587031215612d5857612d57612c99565b5b6000612d6687828801612cc4565b945050602085013567ffffffffffffffff811115612d8757612d86612c9e565b5b612d9387828801612ce8565b93509350506040612da687828801612cc4565b91505092959194509250565b600081519050919050565b600082825260208201905092915050565b60005b83811015612dec578082015181840152602081019050612dd1565b60008484015250505050565b6000601f19601f8301169050919050565b6000612e1482612db2565b612e1e8185612dbd565b9350612e2e818560208601612dce565b612e3781612df8565b840191505092915050565b60006020820190508181036000830152612e5c8184612e09565b905092915050565b600073ffffffffffffffffffffffffffffffffffffffff82169050919050565b6000612e8f82612e64565b9050919050565b612e9f81612e84565b8114612eaa57600080fd5b50565b600081359050612ebc81612e96565b92915050565b6000819050919050565b612ed581612ec2565b8114612ee057600080fd5b50565b600081359050612ef281612ecc565b92915050565b60008060408385031215612f0f57612f0e612c99565b5b6000612f1d85828601612ead565b9250506020612f2e85828601612ee3565b9150509250929050565b60008115159050919050565b612f4d81612f38565b82525050565b6000602082019050612f686000830184612f44565b92915050565b60008083601f840112612f8457612f83612cd9565b5b8235905067ffffffffffffffff811115612fa157612fa0612cde565b5b602083019150836001820283011115612fbd57612fbc612ce3565b5b9250929050565b600080600080600060808688031215612fe057612fdf612c99565b5b6000612fee88828901612ead565b9550506020612fff88828901612ead565b945050604061301088828901612ee3565b935050606086013567ffffffffffffffff81111561303157613030612c9e565b5b61303d88828901612f6e565b92509250509295509295909350565b61305581612ec2565b82525050565b60006040820190506130706000830185612f44565b61307d602083018461304c565b9392505050565b6000602082019050613099600083018461304c565b92915050565b600080600080606085870312156130b9576130b8612c99565b5b60006130c787828801612ead565b94505060206130d887828801612ee3565b935050604085013567ffffffffffffffff8111156130f9576130f8612c9e565b5b61310587828801612f6e565b925092505092959194509250565b60008060006060848603121561312c5761312b612c99565b5b600061313a86828701612ead565b935050602061314b86828701612ead565b925050604061315c86828701612ee3565b9150509250925092565b6000819050919050565b600061318b61318661318184612e64565b613166565b612e64565b9050919050565b600061319d82613170565b9050919050565b60006131af82613192565b9050919050565b6131bf816131a4565b82525050565b60006020820190506131da60008301846131b6565b92915050565b600080600080600080608087890312156131fd576131fc612c99565b5b600061320b89828a01612ead565b965050602061321c89828a01612ee3565b955050604087013567ffffffffffffffff81111561323d5761323c612c9e565b5b61324989828a01612f6e565b9450945050606087013567ffffffffffffffff81111561326c5761326b612c9e565b5b61327889828a01612f6e565b92509250509295509295509295565b600060ff82169050919050565b61329d81613287565b82525050565b60006020820190506132b86000830184613294565b92915050565b6000602082840312156132d4576132d3612c99565b5b60006132e284828501612ee3565b91505092915050565b600080fd5b7f4e487b7100000000000000000000000000000000000000000000000000000000600052604160045260246000fd5b61332882612df8565b810181811067ffffffffffffffff82111715613347576133466132f0565b5b80604052505050565b600061335a612c8f565b9050613366828261331f565b919050565b600067ffffffffffffffff821115613386576133856132f0565b5b61338f82612df8565b9050602081019050919050565b82818337600083830152505050565b60006133be6133b98461336b565b613350565b9050828152602081018484840111156133da576133d96132eb565b5b6133e584828561339c565b509392505050565b600082601f83011261340257613401612cd9565b5b81356134128482602086016133ab565b91505092915050565b600080600080600080600060e0888a03121561343a57613439612c99565b5b60006134488a828b01612cc4565b975050602088013567ffffffffffffffff81111561346957613468612c9e565b5b6134758a828b016133ed565b965050604088013567ffffffffffffffff81111561349657613495612c9e565b5b6134a28a828b016133ed565b95505060606134b38a828b01612ead565b94505060806134c48a828b01612ead565b93505060a06134d58a828b01612ead565b92505060c06134e68a828b01612ee3565b91505092959891949750929550565b60006020828403121561350b5761350a612c99565b5b600061351984828501612ead565b91505092915050565b600081519050919050565b600082825260208201905092915050565b6000819050602082019050919050565b61355781612ca3565b82525050565b6000613569838361354e565b60208301905092915050565b6000602082019050919050565b600061358d82613522565b613597818561352d565b93506135a28361353e565b8060005b838110156135d35781516135ba888261355d565b97506135c583613575565b9250506001810190506135a6565b5085935050505092915050565b600060208201905081810360008301526135fa8184613582565b905092915050565b60008060008060008060008060a0898b03121561362257613621612c99565b5b60006136308b828c01612ead565b985050602089013567ffffffffffffffff81111561365157613650612c9e565b5b61365d8b828c01612ce8565b9750975050604089013567ffffffffffffffff8111156136805761367f612c9e565b5b61368c8b828c01612f6e565b9550955050606061369f8b828c01612ee3565b935050608089013567ffffffffffffffff8111156136c0576136bf612c9e565b5b6136cc8b828c01612f6e565b92509250509295985092959890939650565b6000602082840312156136f4576136f3612c99565b5b600061370284828501612cc4565b91505092915050565b61371481612ca3565b82525050565b600060608201905081810360008301526137348186612e09565b9050613743602083018561370b565b613750604083018461304c565b949350505050565b60008060008060008060006080888a03121561377757613776612c99565b5b600088013567ffffffffffffffff81111561379557613794612c9e565b5b6137a18a828b01612ce8565b9750975050602088013567ffffffffffffffff8111156137c4576137c3612c9e565b5b6137d08a828b01612f6e565b955095505060406137e38a828b01612ee3565b935050606088013567ffffffffffffffff81111561380457613803612c9e565b5b6138108a828b01612f6e565b925092505092959891949750929550565b600061382c82613192565b9050919050565b61383c81613821565b82525050565b60006020820190506138576000830184613833565b92915050565b6000806040838503121561387457613873612c99565b5b600061388285828601612ead565b925050602061389385828601612ead565b9150509250929050565b6000806000604084860312156138b6576138b5612c99565b5b60006138c486828701612ee3565b935050602084013567ffffffffffffffff8111156138e5576138e4612c9e565b5b6138f186828701612f6e565b92509250509250925092565b600080600080600080600060a0888a03121561391c5761391b612c99565b5b600061392a8a828b01612ead565b975050602061393b8a828b01612ead565b965050604061394c8a828b01612ee3565b955050606088013567ffffffffffffffff81111561396d5761396c612c9e565b5b6139798a828b01612f6e565b9450945050608088013567ffffffffffffffff81111561399c5761399b612c9e565b5b6139a88a828b01612f6e565b925092505092959891949750929550565b6139c281612e84565b82525050565b60006020820190506139dd60008301846139b9565b92915050565b7f5a65726f2076616c7565206973206e6f7420616c6c6f77656400000000000000600082015250565b6000613a19601983612dbd565b9150613a24826139e3565b602082019050919050565b60006020820190508181036000830152613a4881613a0c565b9050919050565b7f53686f756c64206e6f74206265206120656d7074792075726900000000000000600082015250565b6000613a85601983612dbd565b9150613a9082613a4f565b602082019050919050565b60006020820190508181036000830152613ab481613a78565b9050919050565b7f4e487b7100000000000000000000000000000000000000000000000000000000600052602260045260246000fd5b60006002820490506001821680613b0257607f821691505b602082108103613b1557613b14613abb565b5b50919050565b60008190508160005260206000209050919050565b60006020601f8301049050919050565b600082821b905092915050565b600060088302613b7d7fffffffffffffffffffffffffffffffffffffffffffffffffffffffffffffffff82613b40565b613b878683613b40565b95508019841693508086168417925050509392505050565b6000613bba613bb5613bb084612ec2565b613166565b612ec2565b9050919050565b6000819050919050565b613bd483613b9f565b613be8613be082613bc1565b848454613b4d565b825550505050565b600090565b613bfd613bf0565b613c08818484613bcb565b505050565b5b81811015613c2c57613c21600082613bf5565b600181019050613c0e565b5050565b601f821115613c7157613c4281613b1b565b613c4b84613b30565b81016020851015613c5a578190505b613c6e613c6685613b30565b830182613c0d565b50505b505050565b600082821c905092915050565b6000613c9460001984600802613c76565b1980831691505092915050565b6000613cad8383613c83565b9150826002028217905092915050565b613cc682612db2565b67ffffffffffffffff811115613cdf57613cde6132f0565b5b613ce98254613aea565b613cf4828285613c30565b600060209050601f831160018114613d275760008415613d15578287015190505b613d1f8582613ca1565b865550613d87565b601f198416613d3586613b1b565b60005b82811015613d5d57848901518255600182019150602085019450602081019050613d38565b86831015613d7a5784890151613d76601f891682613c83565b8355505b6001600288020188555050505b505050505050565b6000613d9b8385612dbd565b9350613da883858461339c565b613db183612df8565b840190509392505050565b60006040820190508181036000830152613dd7818587613d8f565b9050613de6602083018461370b565b949350505050565b600082825260208201905092915050565b6000613e0b8385613dee565b9350613e1883858461339c565b613e2183612df8565b840190509392505050565b6000608082019050613e4160008301896139b9565b613e4e602083018861304c565b8181036040830152613e61818688613dff565b90508181036060830152613e76818486613dff565b9050979650505050505050565b6000819050919050565b600067ffffffffffffffff82169050919050565b6000613ebc613eb7613eb284613e83565b613166565b613e8d565b9050919050565b613ecc81613ea1565b82525050565b6000602082019050613ee76000830184613ec3565b92915050565b6000604082019050613f02600083018661304c565b8181036020830152613f15818486613dff565b9050949350505050565b7f416c72656164792066696e616c697a6564000000000000000000000000000000600082015250565b6000613f55601183612dbd565b9150613f6082613f1f565b602082019050919050565b60006020820190508181036000830152613f8481613f48565b9050919050565b7f4e487b7100000000000000000000000000000000000000000000000000000000600052601160045260246000fd5b6000613fc582612ec2565b9150613fd083612ec2565b9250828203905081811115613fe857613fe7613f8b565b5b92915050565b600060a082019050614003600083018b6139b9565b818103602083015261401681898b613d8f565b9050818103604083015261402b818789613dff565b905061403a606083018661304c565b818103608083015261404d818486613dff565b90509998505050505050505050565b7f446f63756d656e742073686f756c642062652065786973746564000000000000600082015250565b6000614092601a83612dbd565b915061409d8261405c565b602082019050919050565b600060208201905081810360008301526140c181614085565b9050919050565b600081546140d581613aea565b6140df8186612dbd565b945060018216600081146140fa576001811461411057614143565b60ff198316865281151560200286019350614143565b61411985613b1b565b60005b8381101561413b5781548189015260018201915060208101905061411c565b808801955050505b50505092915050565b6000604082019050818103600083015261416681856140c8565b9050614175602083018461370b565b9392505050565b7f43757272656e7420636f6e74726f6c6c65720000000000000000000000000000600082015250565b60006141b2601283612dbd565b91506141bd8261417c565b602082019050919050565b600060208201905081810360008301526141e1816141a5565b9050919050565b60006060820190506141fd60008301866139b9565b61420a602083018561304c565b614217604083018461304c565b949350505050565b60008160601b9050919050565b60006142378261421f565b9050919050565b60006142498261422c565b9050919050565b61426161425c82612e84565b61423e565b82525050565b60006142738284614250565b60148201915081905092915050565b600081519050919050565b600061429882614282565b6142a28185613dee565b93506142b2818560208601612dce565b6142bb81612df8565b840191505092915050565b600060408201905081810360008301526142e0818561428d565b90506142ef60208301846139b9565b9392505050565b600067ffffffffffffffff821115614311576143106132f0565b5b61431a82612df8565b9050602081019050919050565b600061433a614335846142f6565b613350565b905082815260208101848484011115614356576143556132eb565b5b614361848285612dce565b509392505050565b600082601f83011261437e5761437d612cd9565b5b815161438e848260208601614327565b91505092915050565b6000602082840312156143ad576143ac612c99565b5b600082015167ffffffffffffffff8111156143cb576143ca612c9e565b5b6143d784828501614369565b91505092915050565b7f4e487b7100000000000000000000000000000000000000000000000000000000600052602160045260246000fd5b600381106144205761441f6143e0565b5b50565b60008190506144318261440f565b919050565b600061444182614423565b9050919050565b61445181614436565b82525050565b600060608201905061446c600083018661370b565b6144796020830185614448565b818103604083015261448b818461428d565b9050949350505050565b6000815190506144a481612cad565b92915050565b6000602082840312156144c0576144bf612c99565b5b60006144ce84828501614495565b91505092915050565b60006020820190506144ec600083018461370b565b92915050565b60008151905061450181612e96565b92915050565b60006020828403121561451d5761451c612c99565b5b600061452b848285016144f2565b91505092915050565b7f49737375616e636520697320636c6f7365640000000000000000000000000000600082015250565b600061456a601283612dbd565b915061457582614534565b602082019050919050565b600060208201905081810360008301526145998161455d565b9050919050565b60006145ab82612ec2565b91506145b683612ec2565b92508282019050808211156145ce576145cd613f8b565b5b9291505056fea26469706673582212208fa2784fc44423cceb60c26620284f7ed47ea318de618e29f9461012e719e2b164736f6c63430008140033",
  "linkReferences": {},
  "deployedLinkReferences": {}
}