{
  "_format": "hh-sol-artifact-1",
  "contractName": "AssetTokenFactory",
  "sourceName": "contracts/assetTokenFactory.sol",
  "abi": [
    {
      "inputs": [],
      "name": "ERC1167FailedCreateClone",
      "type": "error"
    },
    {
      "inputs": [],
      "name": "InvalidInitialization",
      "type": "error"
    },
    {
      "inputs": [],
      "name": "NotInitializing",
      "type": "error"
    },
    {
      "inputs": [
        {
          "internalType": "address",
          "name": "owner",
          "type": "address"
        }
      ],
      "name": "OwnableInvalidOwner",
      "type": "error"
    },
    {
      "inputs": [
        {
          "internalType": "address",
          "name": "account",
          "type": "address"
        }
      ],
      "name": "OwnableUnauthorizedAccount",
      "type": "error"
    },
    {
      "inputs": [],
      "name": "ReentrancyGuardReentrantCall",
      "type": "error"
    },
    {
      "anonymous": false,
      "inputs": [
        {
          "indexed": false,
          "internalType": "uint64",
          "name": "version",
          "type": "uint64"
        }
      ],
      "name": "Initialized",
      "type": "event"
    },
    {
      "anonymous": false,
      "inputs": [
        {
          "indexed": true,
          "internalType": "address",
          "name": "previousOwner",
          "type": "address"
        },
        {
          "indexed": true,
          "internalType": "address",
          "name": "newOwner",
          "type": "address"
        }
      ],
      "name": "OwnershipTransferred",
      "type": "event"
    },
    {
      "anonymous": false,
      "inputs": [
        {
          "indexed": false,
          "internalType": "address",
          "name": "contractAddress",
          "type": "address"
        }
      ],
      "name": "TokenCreated",
      "type": "event"
    },
    {
      "inputs": [
        {
          "internalType": "address",
          "name": "implementation",
          "type": "address"
        },
        {
          "internalType": "string",
          "name": "symbol",
          "type": "string"
        }
      ],
      "name": "addERC20PaymentMethod",
      "outputs": [],
      "stateMutability": "nonpayable",
      "type": "function"
    },
    {
      "inputs": [],
      "name": "assetAdmin",
      "outputs": [
        {
          "internalType": "address",
          "name": "",
          "type": "address"
        }
      ],
      "stateMutability": "view",
      "type": "function"
    },
    {
      "inputs": [
        {
          "internalType": "bytes32",
          "name": "_salt",
          "type": "bytes32"
        },
        {
          "internalType": "address",
          "name": "_interchainTokenServiceAddress",
          "type": "address"
        },
        {
          "internalType": "string",
          "name": "_tokenName",
          "type": "string"
        },
        {
          "internalType": "string",
          "name": "_tokenSymbol",
          "type": "string"
        },
        {
          "internalType": "uint256",
          "name": "_tokenOfferingPrice",
          "type": "uint256"
        }
      ],
      "name": "createToken",
      "outputs": [],
      "stateMutability": "nonpayable",
      "type": "function"
    },
    {
      "inputs": [],
      "name": "defaultTokenController",
      "outputs": [
        {
          "internalType": "address",
          "name": "",
          "type": "address"
        }
      ],
      "stateMutability": "view",
      "type": "function"
    },
    {
      "inputs": [
        {
          "internalType": "address",
          "name": "_assetAdmin",
          "type": "address"
        },
        {
          "internalType": "address",
          "name": "_tokenClone",
          "type": "address"
        },
        {
          "internalType": "address",
          "name": "_tokenController",
          "type": "address"
        },
        {
          "internalType": "address",
          "name": "_treasury",
          "type": "address"
        },
        {
          "internalType": "address",
          "name": "_owner",
          "type": "address"
        }
      ],
      "name": "initialize",
      "outputs": [],
      "stateMutability": "nonpayable",
      "type": "function"
    },
    {
      "inputs": [
        {
          "internalType": "address",
          "name": "_token",
          "type": "address"
        },
        {
          "internalType": "address",
          "name": "_tokenHolder",
          "type": "address"
        },
        {
          "internalType": "uint256",
          "name": "_value",
          "type": "uint256"
        },
        {
          "internalType": "bytes",
          "name": "_data",
          "type": "bytes"
        }
      ],
      "name": "issueToken",
      "outputs": [],
      "stateMutability": "nonpayable",
      "type": "function"
    },
    {
      "inputs": [],
      "name": "owner",
      "outputs": [
        {
          "internalType": "address",
          "name": "",
          "type": "address"
        }
      ],
      "stateMutability": "view",
      "type": "function"
    },
    {
      "inputs": [
        {
          "internalType": "address",
          "name": "implementation",
          "type": "address"
        }
      ],
      "name": "removeERC20PaymentMethod",
      "outputs": [],
      "stateMutability": "nonpayable",
      "type": "function"
    },
    {
      "inputs": [],
      "name": "renounceOwnership",
      "outputs": [],
      "stateMutability": "nonpayable",
      "type": "function"
    },
    {
      "inputs": [],
      "name": "tokenImplementation",
      "outputs": [
        {
          "internalType": "address",
          "name": "",
          "type": "address"
        }
      ],
      "stateMutability": "view",
      "type": "function"
    },
    {
      "inputs": [
        {
          "internalType": "uint256",
          "name": "_tokenAmount",
          "type": "uint256"
        },
        {
          "internalType": "contract AssetToken",
          "name": "_token",
          "type": "address"
        },
        {
          "internalType": "address",
          "name": "_paymentMethod",
          "type": "address"
        }
      ],
      "name": "tokenOffering",
      "outputs": [],
      "stateMutability": "nonpayable",
      "type": "function"
    },
    {
      "inputs": [
        {
          "internalType": "contract IERC20",
          "name": "token",
          "type": "address"
        },
        {
          "internalType": "address",
          "name": "to",
          "type": "address"
        },
        {
          "internalType": "uint256",
          "name": "amount",
          "type": "uint256"
        }
      ],
      "name": "transferERC20",
      "outputs": [],
      "stateMutability": "nonpayable",
      "type": "function"
    },
    {
      "inputs": [
        {
          "internalType": "address",
          "name": "newOwner",
          "type": "address"
        }
      ],
      "name": "transferOwnership",
      "outputs": [],
      "stateMutability": "nonpayable",
      "type": "function"
    },
    {
      "inputs": [],
      "name": "treasury",
      "outputs": [
        {
          "internalType": "address",
          "name": "",
          "type": "address"
        }
      ],
      "stateMutability": "view",
      "type": "function"
    }
  ],
  "bytecode": "0x608060405234801561001057600080fd5b50612269806100206000396000f3fe608060405234801561001057600080fd5b50600436106100ea5760003560e01c80636c3e4a6e1161008c578063823e78af11610066578063823e78af146101fd5780638da5cb5b146102195780639db5dbe414610237578063f2fde38b14610253576100ea565b80636c3e4a6e146101bb578063715018a6146101d7578063804f8e66146101e1576100ea565b80632f3a3d5d116100c85780632f3a3d5d146101475780633d7591c414610165578063594750791461018157806361d027b31461019d576100ea565b80631459457a146100ef578063237cbd4f1461010b57806325e7228314610129575b600080fd5b6101096004803603810190610104919061152d565b61026f565b005b610113610546565b60405161012091906115b7565b60405180910390f35b61013161056a565b60405161013e91906115b7565b60405180910390f35b61014f610590565b60405161015c91906115b7565b60405180910390f35b61017f600480360381019061017a9190611718565b6105b6565b005b61019b6004803603810190610196919061180a565b61071b565b005b6101a56107f3565b6040516101b291906115b7565b60405180910390f35b6101d560048036038101906101d091906118d0565b610819565b005b6101df610bbd565b005b6101fb60048036038101906101f69190611923565b610bd1565b005b61021760048036038101906102129190611986565b610ce4565b005b610221610f0b565b60405161022e91906115b7565b60405180910390f35b610251600480360381019061024c9190611a77565b610f43565b005b61026d60048036038101906102689190611923565b610fdf565b005b6000610279611065565b905060008160000160089054906101000a900460ff1615905060008260000160009054906101000a900467ffffffffffffffff1690506000808267ffffffffffffffff161480156102c75750825b9050600060018367ffffffffffffffff161480156102fc575060003073ffffffffffffffffffffffffffffffffffffffff163b145b90508115801561030a575080155b15610341576040517ff92ee8a900000000000000000000000000000000000000000000000000000000815260040160405180910390fd5b60018560000160006101000a81548167ffffffffffffffff021916908367ffffffffffffffff16021790555083156103915760018560000160086101000a81548160ff0219169083151502179055505b896000806101000a81548173ffffffffffffffffffffffffffffffffffffffff021916908373ffffffffffffffffffffffffffffffffffffffff16021790555088600160006101000a81548173ffffffffffffffffffffffffffffffffffffffff021916908373ffffffffffffffffffffffffffffffffffffffff16021790555087600260006101000a81548173ffffffffffffffffffffffffffffffffffffffff021916908373ffffffffffffffffffffffffffffffffffffffff16021790555086600360006101000a81548173ffffffffffffffffffffffffffffffffffffffff021916908373ffffffffffffffffffffffffffffffffffffffff16021790555033600460006101000a81548173ffffffffffffffffffffffffffffffffffffffff021916908373ffffffffffffffffffffffffffffffffffffffff1602179055506104de8661108d565b831561053a5760008560000160086101000a81548160ff0219169083151502179055507fc7f505b2f371ae2175ee4913f4499e1f2633a7b5936321eed1cdaeb6115181d260016040516105319190611b23565b60405180910390a15b50505050505050505050565b60008054906101000a900473ffffffffffffffffffffffffffffffffffffffff1681565b600260009054906101000a900473ffffffffffffffffffffffffffffffffffffffff1681565b600160009054906101000a900473ffffffffffffffffffffffffffffffffffffffff1681565b600460009054906101000a900473ffffffffffffffffffffffffffffffffffffffff1673ffffffffffffffffffffffffffffffffffffffff163373ffffffffffffffffffffffffffffffffffffffff1614806106445750610615610f0b565b73ffffffffffffffffffffffffffffffffffffffff163373ffffffffffffffffffffffffffffffffffffffff16145b61064d57600080fd5b60405180604001604052808373ffffffffffffffffffffffffffffffffffffffff16815260200182815250600660008473ffffffffffffffffffffffffffffffffffffffff1673ffffffffffffffffffffffffffffffffffffffff16815260200190815260200160002060008201518160000160006101000a81548173ffffffffffffffffffffffffffffffffffffffff021916908373ffffffffffffffffffffffffffffffffffffffff16021790555060208201518160010190816107139190611d4b565b509050505050565b600460009054906101000a900473ffffffffffffffffffffffffffffffffffffffff1673ffffffffffffffffffffffffffffffffffffffff163373ffffffffffffffffffffffffffffffffffffffff161461077557600080fd5b60008590508073ffffffffffffffffffffffffffffffffffffffff1663bb3acde9868686866040518563ffffffff1660e01b81526004016107b99493929190611e6a565b600060405180830381600087803b1580156107d357600080fd5b505af11580156107e7573d6000803e3d6000fd5b50505050505050505050565b600360009054906101000a900473ffffffffffffffffffffffffffffffffffffffff1681565b6108216110a1565b6000600660008373ffffffffffffffffffffffffffffffffffffffff1673ffffffffffffffffffffffffffffffffffffffff1681526020019081526020016000206040518060400160405290816000820160009054906101000a900473ffffffffffffffffffffffffffffffffffffffff1673ffffffffffffffffffffffffffffffffffffffff1673ffffffffffffffffffffffffffffffffffffffff1681526020016001820180546108d390611b78565b80601f01602080910402602001604051908101604052809291908181526020018280546108ff90611b78565b801561094c5780601f106109215761010080835404028352916020019161094c565b820191906000526020600020905b81548152906001019060200180831161092f57829003601f168201915b5050505050815250509050600073ffffffffffffffffffffffffffffffffffffffff16816000015173ffffffffffffffffffffffffffffffffffffffff16036109ca576040517f08c379a00000000000000000000000000000000000000000000000000000000081526004016109c190611f07565b60405180910390fd5b60008160000151905060008473ffffffffffffffffffffffffffffffffffffffff1663bd7bbc306040518163ffffffff1660e01b8152600401602060405180830381865afa158015610a20573d6000803e3d6000fd5b505050506040513d601f19601f82011682018060405250810190610a449190611f3c565b86610a4f9190611f98565b905060008273ffffffffffffffffffffffffffffffffffffffff166370a08231336040518263ffffffff1660e01b8152600401610a8c91906115b7565b602060405180830381865afa158015610aa9573d6000803e3d6000fd5b505050506040513d601f19601f82011682018060405250810190610acd9190611f3c565b905081811015610b12576040517f08c379a0000000000000000000000000000000000000000000000000000000008152600401610b0990612026565b60405180910390fd5b610b3f83600360009054906101000a900473ffffffffffffffffffffffffffffffffffffffff1684610f43565b8573ffffffffffffffffffffffffffffffffffffffff166377d9e3b733896040518363ffffffff1660e01b8152600401610b7a92919061206c565b600060405180830381600087803b158015610b9457600080fd5b505af1158015610ba8573d6000803e3d6000fd5b5050505050505050610bb86110f8565b505050565b610bc5611111565b610bcf6000611198565b565b600460009054906101000a900473ffffffffffffffffffffffffffffffffffffffff1673ffffffffffffffffffffffffffffffffffffffff163373ffffffffffffffffffffffffffffffffffffffff161480610c5f5750610c30610f0b565b73ffffffffffffffffffffffffffffffffffffffff163373ffffffffffffffffffffffffffffffffffffffff16145b610c6857600080fd5b600660008273ffffffffffffffffffffffffffffffffffffffff1673ffffffffffffffffffffffffffffffffffffffff168152602001908152602001600020600080820160006101000a81549073ffffffffffffffffffffffffffffffffffffffff0219169055600182016000610cdf919061145e565b505050565b600460009054906101000a900473ffffffffffffffffffffffffffffffffffffffff1673ffffffffffffffffffffffffffffffffffffffff163373ffffffffffffffffffffffffffffffffffffffff161480610d725750610d43610f0b565b73ffffffffffffffffffffffffffffffffffffffff163373ffffffffffffffffffffffffffffffffffffffff16145b610d7b57600080fd5b6000610da8600160009054906101000a900473ffffffffffffffffffffffffffffffffffffffff1661126f565b905060008190508073ffffffffffffffffffffffffffffffffffffffff166352e4607488878760008054906101000a900473ffffffffffffffffffffffffffffffffffffffff16600260009054906101000a900473ffffffffffffffffffffffffffffffffffffffff168c8a6040518863ffffffff1660e01b8152600401610e36979695949392919061211a565b600060405180830381600087803b158015610e5057600080fd5b505af1158015610e64573d6000803e3d6000fd5b505050506005819080600181540180825580915050600190039060005260206000200160009091909190916101000a81548173ffffffffffffffffffffffffffffffffffffffff021916908373ffffffffffffffffffffffffffffffffffffffff1602179055507f2e2b3f61b70d2d131b2a807371103cc98d51adcaa5e9a8f9c32658ad8426e74e82604051610efa91906115b7565b60405180910390a150505050505050565b600080610f16611320565b90508060000160009054906101000a900473ffffffffffffffffffffffffffffffffffffffff1691505090565b610f4b6110a1565b60003390508373ffffffffffffffffffffffffffffffffffffffff166323b872dd8285856040518463ffffffff1660e01b8152600401610f8d93929190612197565b6020604051808303816000875af1158015610fac573d6000803e3d6000fd5b505050506040513d601f19601f82011682018060405250810190610fd09190612206565b5050610fda6110f8565b505050565b610fe7611111565b600073ffffffffffffffffffffffffffffffffffffffff168173ffffffffffffffffffffffffffffffffffffffff16036110595760006040517f1e4fbdf700000000000000000000000000000000000000000000000000000000815260040161105091906115b7565b60405180910390fd5b61106281611198565b50565b60007ff0c57e16840df040f15088dc2f81fe391c3923bec73e23a9662efc9c229c6a00905090565b611095611348565b61109e81611388565b50565b60006110ab61140e565b905060028160000154036110eb576040517f3ee5aeb500000000000000000000000000000000000000000000000000000000815260040160405180910390fd5b6002816000018190555050565b600061110261140e565b90506001816000018190555050565b611119611436565b73ffffffffffffffffffffffffffffffffffffffff16611137610f0b565b73ffffffffffffffffffffffffffffffffffffffff16146111965761115a611436565b6040517f118cdaa700000000000000000000000000000000000000000000000000000000815260040161118d91906115b7565b60405180910390fd5b565b60006111a2611320565b905060008160000160009054906101000a900473ffffffffffffffffffffffffffffffffffffffff169050828260000160006101000a81548173ffffffffffffffffffffffffffffffffffffffff021916908373ffffffffffffffffffffffffffffffffffffffff1602179055508273ffffffffffffffffffffffffffffffffffffffff168173ffffffffffffffffffffffffffffffffffffffff167f8be0079c531659141344cd1fd0a4f28419497f9722a3daafe3b4186f6b6457e060405160405180910390a3505050565b6000763d602d80600a3d3981f3363d3d373d3d3d363d730000008260601b60e81c176000526e5af43d82803e903d91602b57fd5bf38260781b17602052603760096000f09050600073ffffffffffffffffffffffffffffffffffffffff168173ffffffffffffffffffffffffffffffffffffffff160361131b576040517fc2f868f400000000000000000000000000000000000000000000000000000000815260040160405180910390fd5b919050565b60007f9016d09d72d40fdae2fd8ceac6b6234c7706214fd39c1cd1e609a0528c199300905090565b61135061143e565b611386576040517fd7e6bcf800000000000000000000000000000000000000000000000000000000815260040160405180910390fd5b565b611390611348565b600073ffffffffffffffffffffffffffffffffffffffff168173ffffffffffffffffffffffffffffffffffffffff16036114025760006040517f1e4fbdf70000000000000000000000000000000000000000000000000000000081526004016113f991906115b7565b60405180910390fd5b61140b81611198565b50565b60007f9b779b17422d0df92223018b32b4d1fa46e071723d6817e2486d003becc55f00905090565b600033905090565b6000611448611065565b60000160089054906101000a900460ff16905090565b50805461146a90611b78565b6000825580601f1061147c575061149b565b601f01602090049060005260206000209081019061149a919061149e565b5b50565b5b808211156114b757600081600090555060010161149f565b5090565b6000604051905090565b600080fd5b600080fd5b600073ffffffffffffffffffffffffffffffffffffffff82169050919050565b60006114fa826114cf565b9050919050565b61150a816114ef565b811461151557600080fd5b50565b60008135905061152781611501565b92915050565b600080600080600060a08688031215611549576115486114c5565b5b600061155788828901611518565b955050602061156888828901611518565b945050604061157988828901611518565b935050606061158a88828901611518565b925050608061159b88828901611518565b9150509295509295909350565b6115b1816114ef565b82525050565b60006020820190506115cc60008301846115a8565b92915050565b600080fd5b600080fd5b6000601f19601f8301169050919050565b7f4e487b7100000000000000000000000000000000000000000000000000000000600052604160045260246000fd5b611625826115dc565b810181811067ffffffffffffffff82111715611644576116436115ed565b5b80604052505050565b60006116576114bb565b9050611663828261161c565b919050565b600067ffffffffffffffff821115611683576116826115ed565b5b61168c826115dc565b9050602081019050919050565b82818337600083830152505050565b60006116bb6116b684611668565b61164d565b9050828152602081018484840111156116d7576116d66115d7565b5b6116e2848285611699565b509392505050565b600082601f8301126116ff576116fe6115d2565b5b813561170f8482602086016116a8565b91505092915050565b6000806040838503121561172f5761172e6114c5565b5b600061173d85828601611518565b925050602083013567ffffffffffffffff81111561175e5761175d6114ca565b5b61176a858286016116ea565b9150509250929050565b6000819050919050565b61178781611774565b811461179257600080fd5b50565b6000813590506117a48161177e565b92915050565b600080fd5b600080fd5b60008083601f8401126117ca576117c96115d2565b5b8235905067ffffffffffffffff8111156117e7576117e66117aa565b5b602083019150836001820283011115611803576118026117af565b5b9250929050565b600080600080600060808688031215611826576118256114c5565b5b600061183488828901611518565b955050602061184588828901611518565b945050604061185688828901611795565b935050606086013567ffffffffffffffff811115611877576118766114ca565b5b611883888289016117b4565b92509250509295509295909350565b600061189d826114ef565b9050919050565b6118ad81611892565b81146118b857600080fd5b50565b6000813590506118ca816118a4565b92915050565b6000806000606084860312156118e9576118e86114c5565b5b60006118f786828701611795565b9350506020611908868287016118bb565b925050604061191986828701611518565b9150509250925092565b600060208284031215611939576119386114c5565b5b600061194784828501611518565b91505092915050565b6000819050919050565b61196381611950565b811461196e57600080fd5b50565b6000813590506119808161195a565b92915050565b600080600080600060a086880312156119a2576119a16114c5565b5b60006119b088828901611971565b95505060206119c188828901611518565b945050604086013567ffffffffffffffff8111156119e2576119e16114ca565b5b6119ee888289016116ea565b935050606086013567ffffffffffffffff811115611a0f57611a0e6114ca565b5b611a1b888289016116ea565b9250506080611a2c88828901611795565b9150509295509295909350565b6000611a44826114ef565b9050919050565b611a5481611a39565b8114611a5f57600080fd5b50565b600081359050611a7181611a4b565b92915050565b600080600060608486031215611a9057611a8f6114c5565b5b6000611a9e86828701611a62565b9350506020611aaf86828701611518565b9250506040611ac086828701611795565b9150509250925092565b6000819050919050565b600067ffffffffffffffff82169050919050565b6000819050919050565b6000611b0d611b08611b0384611aca565b611ae8565b611ad4565b9050919050565b611b1d81611af2565b82525050565b6000602082019050611b386000830184611b14565b92915050565b600081519050919050565b7f4e487b7100000000000000000000000000000000000000000000000000000000600052602260045260246000fd5b60006002820490506001821680611b9057607f821691505b602082108103611ba357611ba2611b49565b5b50919050565b60008190508160005260206000209050919050565b60006020601f8301049050919050565b600082821b905092915050565b600060088302611c0b7fffffffffffffffffffffffffffffffffffffffffffffffffffffffffffffffff82611bce565b611c158683611bce565b95508019841693508086168417925050509392505050565b6000611c48611c43611c3e84611774565b611ae8565b611774565b9050919050565b6000819050919050565b611c6283611c2d565b611c76611c6e82611c4f565b848454611bdb565b825550505050565b600090565b611c8b611c7e565b611c96818484611c59565b505050565b5b81811015611cba57611caf600082611c83565b600181019050611c9c565b5050565b601f821115611cff57611cd081611ba9565b611cd984611bbe565b81016020851015611ce8578190505b611cfc611cf485611bbe565b830182611c9b565b50505b505050565b600082821c905092915050565b6000611d2260001984600802611d04565b1980831691505092915050565b6000611d3b8383611d11565b9150826002028217905092915050565b611d5482611b3e565b67ffffffffffffffff811115611d6d57611d6c6115ed565b5b611d778254611b78565b611d82828285611cbe565b600060209050601f831160018114611db55760008415611da3578287015190505b611dad8582611d2f565b865550611e15565b601f198416611dc386611ba9565b60005b82811015611deb57848901518255600182019150602085019450602081019050611dc6565b86831015611e085784890151611e04601f891682611d11565b8355505b6001600288020188555050505b505050505050565b611e2681611774565b82525050565b600082825260208201905092915050565b6000611e498385611e2c565b9350611e56838584611699565b611e5f836115dc565b840190509392505050565b6000606082019050611e7f60008301876115a8565b611e8c6020830186611e1d565b8181036040830152611e9f818486611e3d565b905095945050505050565b600082825260208201905092915050565b7f4552525f494e56414c49445f5041594d454e545f4d4554484f44000000000000600082015250565b6000611ef1601a83611eaa565b9150611efc82611ebb565b602082019050919050565b60006020820190508181036000830152611f2081611ee4565b9050919050565b600081519050611f368161177e565b92915050565b600060208284031215611f5257611f516114c5565b5b6000611f6084828501611f27565b91505092915050565b7f4e487b7100000000000000000000000000000000000000000000000000000000600052601160045260246000fd5b6000611fa382611774565b9150611fae83611774565b9250828202611fbc81611774565b91508282048414831517611fd357611fd2611f69565b5b5092915050565b7f4552525f494e53554646494349454e545f46554e445300000000000000000000600082015250565b6000612010601683611eaa565b915061201b82611fda565b602082019050919050565b6000602082019050818103600083015261203f81612003565b9050919050565b50565b6000612056600083611e2c565b915061206182612046565b600082019050919050565b600060608201905061208160008301856115a8565b61208e6020830184611e1d565b818103604083015261209f81612049565b90509392505050565b6120b181611950565b82525050565b60005b838110156120d55780820151818401526020810190506120ba565b60008484015250505050565b60006120ec82611b3e565b6120f68185611eaa565b93506121068185602086016120b7565b61210f816115dc565b840191505092915050565b600060e08201905061212f600083018a6120a8565b818103602083015261214181896120e1565b9050818103604083015261215581886120e1565b905061216460608301876115a8565b61217160808301866115a8565b61217e60a08301856115a8565b61218b60c0830184611e1d565b98975050505050505050565b60006060820190506121ac60008301866115a8565b6121b960208301856115a8565b6121c66040830184611e1d565b949350505050565b60008115159050919050565b6121e3816121ce565b81146121ee57600080fd5b50565b600081519050612200816121da565b92915050565b60006020828403121561221c5761221b6114c5565b5b600061222a848285016121f1565b9150509291505056fea2646970667358221220190bed259f78c7392e0091061babbfde656296ed5a370fba357f1aeec8b2e99264736f6c63430008140033",
  "linkReferences": {},
  "deployedLinkReferences": {}
}