{
  "_format": "hh-sol-artifact-1",
  "contractName": "AssetTokenFactory",
  "sourceName": "contracts/assetTokenFactory.sol",
  "abi": [
    {
      "inputs": [],
      "name": "ERC1167FailedCreateClone",
      "type": "error"
    },
    {
      "inputs": [],
      "name": "InvalidInitialization",
      "type": "error"
    },
    {
      "inputs": [],
      "name": "NotInitializing",
      "type": "error"
    },
    {
      "inputs": [
        {
          "internalType": "address",
          "name": "owner",
          "type": "address"
        }
      ],
      "name": "OwnableInvalidOwner",
      "type": "error"
    },
    {
      "inputs": [
        {
          "internalType": "address",
          "name": "account",
          "type": "address"
        }
      ],
      "name": "OwnableUnauthorizedAccount",
      "type": "error"
    },
    {
      "inputs": [],
      "name": "ReentrancyGuardReentrantCall",
      "type": "error"
    },
    {
      "anonymous": false,
      "inputs": [
        {
          "indexed": false,
          "internalType": "uint64",
          "name": "version",
          "type": "uint64"
        }
      ],
      "name": "Initialized",
      "type": "event"
    },
    {
      "anonymous": false,
      "inputs": [
        {
          "indexed": true,
          "internalType": "address",
          "name": "previousOwner",
          "type": "address"
        },
        {
          "indexed": true,
          "internalType": "address",
          "name": "newOwner",
          "type": "address"
        }
      ],
      "name": "OwnershipTransferred",
      "type": "event"
    },
    {
      "anonymous": false,
      "inputs": [
        {
          "indexed": false,
          "internalType": "address",
          "name": "contractAddress",
          "type": "address"
        }
      ],
      "name": "TokenCreated",
      "type": "event"
    },
    {
      "inputs": [
        {
          "internalType": "address",
          "name": "implementation",
          "type": "address"
        },
        {
          "internalType": "string",
          "name": "symbol",
          "type": "string"
        }
      ],
      "name": "addERC20PaymentMethod",
      "outputs": [],
      "stateMutability": "nonpayable",
      "type": "function"
    },
    {
      "inputs": [],
      "name": "assetAdmin",
      "outputs": [
        {
          "internalType": "address",
          "name": "",
          "type": "address"
        }
      ],
      "stateMutability": "view",
      "type": "function"
    },
    {
      "inputs": [
        {
          "internalType": "bytes32",
          "name": "_salt",
          "type": "bytes32"
        },
        {
          "internalType": "address",
          "name": "_interchainTokenServiceAddress",
          "type": "address"
        },
        {
          "internalType": "string",
          "name": "_tokenName",
          "type": "string"
        },
        {
          "internalType": "string",
          "name": "_tokenSymbol",
          "type": "string"
        },
        {
          "internalType": "uint256",
          "name": "_tokenOfferingPrice",
          "type": "uint256"
        }
      ],
      "name": "createToken",
      "outputs": [],
      "stateMutability": "nonpayable",
      "type": "function"
    },
    {
      "inputs": [],
      "name": "defaultTokenController",
      "outputs": [
        {
          "internalType": "address",
          "name": "",
          "type": "address"
        }
      ],
      "stateMutability": "view",
      "type": "function"
    },
    {
      "inputs": [
        {
          "internalType": "address",
          "name": "_assetAdmin",
          "type": "address"
        },
        {
          "internalType": "address",
          "name": "_tokenClone",
          "type": "address"
        },
        {
          "internalType": "address",
          "name": "_tokenController",
          "type": "address"
        },
        {
          "internalType": "address",
          "name": "_treasury",
          "type": "address"
        },
        {
          "internalType": "address",
          "name": "_owner",
          "type": "address"
        }
      ],
      "name": "initialize",
      "outputs": [],
      "stateMutability": "nonpayable",
      "type": "function"
    },
    {
      "inputs": [
        {
          "internalType": "address",
          "name": "_token",
          "type": "address"
        },
        {
          "internalType": "address",
          "name": "_tokenHolder",
          "type": "address"
        },
        {
          "internalType": "uint256",
          "name": "_value",
          "type": "uint256"
        },
        {
          "internalType": "bytes",
          "name": "_data",
          "type": "bytes"
        }
      ],
      "name": "issueToken",
      "outputs": [],
      "stateMutability": "nonpayable",
      "type": "function"
    },
    {
      "inputs": [],
      "name": "owner",
      "outputs": [
        {
          "internalType": "address",
          "name": "",
          "type": "address"
        }
      ],
      "stateMutability": "view",
      "type": "function"
    },
    {
      "inputs": [
        {
          "internalType": "address",
          "name": "implementation",
          "type": "address"
        }
      ],
      "name": "removeERC20PaymentMethod",
      "outputs": [],
      "stateMutability": "nonpayable",
      "type": "function"
    },
    {
      "inputs": [],
      "name": "renounceOwnership",
      "outputs": [],
      "stateMutability": "nonpayable",
      "type": "function"
    },
    {
      "inputs": [],
      "name": "tokenImplementation",
      "outputs": [
        {
          "internalType": "address",
          "name": "",
          "type": "address"
        }
      ],
      "stateMutability": "view",
      "type": "function"
    },
    {
      "inputs": [
        {
          "internalType": "uint256",
          "name": "_tokenAmount",
          "type": "uint256"
        },
        {
          "internalType": "contract AssetToken",
          "name": "_token",
          "type": "address"
        },
        {
          "internalType": "address",
          "name": "_paymentMethod",
          "type": "address"
        }
      ],
      "name": "tokenOffering",
      "outputs": [],
      "stateMutability": "nonpayable",
      "type": "function"
    },
    {
      "inputs": [
        {
          "internalType": "contract IERC20",
          "name": "token",
          "type": "address"
        },
        {
          "internalType": "address",
          "name": "to",
          "type": "address"
        },
        {
          "internalType": "uint256",
          "name": "amount",
          "type": "uint256"
        }
      ],
      "name": "transferERC20",
      "outputs": [],
      "stateMutability": "nonpayable",
      "type": "function"
    },
    {
      "inputs": [
        {
          "internalType": "address",
          "name": "newOwner",
          "type": "address"
        }
      ],
      "name": "transferOwnership",
      "outputs": [],
      "stateMutability": "nonpayable",
      "type": "function"
    },
    {
      "inputs": [],
      "name": "treasury",
      "outputs": [
        {
          "internalType": "address",
          "name": "",
          "type": "address"
        }
      ],
      "stateMutability": "view",
      "type": "function"
    }
  ],
  "bytecode": "0x608060405234801561001057600080fd5b50612272806100206000396000f3fe608060405234801561001057600080fd5b50600436106100ea5760003560e01c80636c3e4a6e1161008c578063823e78af11610066578063823e78af146101fd5780638da5cb5b146102195780639db5dbe414610237578063f2fde38b14610253576100ea565b80636c3e4a6e146101bb578063715018a6146101d7578063804f8e66146101e1576100ea565b80632f3a3d5d116100c85780632f3a3d5d146101475780633d7591c414610165578063594750791461018157806361d027b31461019d576100ea565b80631459457a146100ef578063237cbd4f1461010b57806325e7228314610129575b600080fd5b61010960048036038101906101049190611536565b61026f565b005b61011361054f565b60405161012091906115c0565b60405180910390f35b610131610573565b60405161013e91906115c0565b60405180910390f35b61014f610599565b60405161015c91906115c0565b60405180910390f35b61017f600480360381019061017a9190611721565b6105bf565b005b61019b60048036038101906101969190611813565b610724565b005b6101a56107fc565b6040516101b291906115c0565b60405180910390f35b6101d560048036038101906101d091906118d9565b610822565b005b6101df610bc6565b005b6101fb60048036038101906101f6919061192c565b610bda565b005b6102176004803603810190610212919061198f565b610ced565b005b610221610f14565b60405161022e91906115c0565b60405180910390f35b610251600480360381019061024c9190611a80565b610f4c565b005b61026d6004803603810190610268919061192c565b610fe8565b005b600061027961106e565b905060008160000160089054906101000a900460ff1615905060008260000160009054906101000a900467ffffffffffffffff1690506000808267ffffffffffffffff161480156102c75750825b9050600060018367ffffffffffffffff161480156102fc575060003073ffffffffffffffffffffffffffffffffffffffff163b145b90508115801561030a575080155b15610341576040517ff92ee8a900000000000000000000000000000000000000000000000000000000815260040160405180910390fd5b60018560000160006101000a81548167ffffffffffffffff021916908367ffffffffffffffff16021790555083156103915760018560000160086101000a81548160ff0219169083151502179055505b896000806101000a81548173ffffffffffffffffffffffffffffffffffffffff021916908373ffffffffffffffffffffffffffffffffffffffff16021790555088600160006101000a81548173ffffffffffffffffffffffffffffffffffffffff021916908373ffffffffffffffffffffffffffffffffffffffff16021790555087600260006101000a81548173ffffffffffffffffffffffffffffffffffffffff021916908373ffffffffffffffffffffffffffffffffffffffff16021790555086600360006101000a81548173ffffffffffffffffffffffffffffffffffffffff021916908373ffffffffffffffffffffffffffffffffffffffff16021790555033600460006101000a81548173ffffffffffffffffffffffffffffffffffffffff021916908373ffffffffffffffffffffffffffffffffffffffff1602179055506104de33611096565b6104e786610fe8565b83156105435760008560000160086101000a81548160ff0219169083151502179055507fc7f505b2f371ae2175ee4913f4499e1f2633a7b5936321eed1cdaeb6115181d2600160405161053a9190611b2c565b60405180910390a15b50505050505050505050565b60008054906101000a900473ffffffffffffffffffffffffffffffffffffffff1681565b600260009054906101000a900473ffffffffffffffffffffffffffffffffffffffff1681565b600160009054906101000a900473ffffffffffffffffffffffffffffffffffffffff1681565b600460009054906101000a900473ffffffffffffffffffffffffffffffffffffffff1673ffffffffffffffffffffffffffffffffffffffff163373ffffffffffffffffffffffffffffffffffffffff16148061064d575061061e610f14565b73ffffffffffffffffffffffffffffffffffffffff163373ffffffffffffffffffffffffffffffffffffffff16145b61065657600080fd5b60405180604001604052808373ffffffffffffffffffffffffffffffffffffffff16815260200182815250600660008473ffffffffffffffffffffffffffffffffffffffff1673ffffffffffffffffffffffffffffffffffffffff16815260200190815260200160002060008201518160000160006101000a81548173ffffffffffffffffffffffffffffffffffffffff021916908373ffffffffffffffffffffffffffffffffffffffff160217905550602082015181600101908161071c9190611d54565b509050505050565b600460009054906101000a900473ffffffffffffffffffffffffffffffffffffffff1673ffffffffffffffffffffffffffffffffffffffff163373ffffffffffffffffffffffffffffffffffffffff161461077e57600080fd5b60008590508073ffffffffffffffffffffffffffffffffffffffff1663bb3acde9868686866040518563ffffffff1660e01b81526004016107c29493929190611e73565b600060405180830381600087803b1580156107dc57600080fd5b505af11580156107f0573d6000803e3d6000fd5b50505050505050505050565b600360009054906101000a900473ffffffffffffffffffffffffffffffffffffffff1681565b61082a6110aa565b6000600660008373ffffffffffffffffffffffffffffffffffffffff1673ffffffffffffffffffffffffffffffffffffffff1681526020019081526020016000206040518060400160405290816000820160009054906101000a900473ffffffffffffffffffffffffffffffffffffffff1673ffffffffffffffffffffffffffffffffffffffff1673ffffffffffffffffffffffffffffffffffffffff1681526020016001820180546108dc90611b81565b80601f016020809104026020016040519081016040528092919081815260200182805461090890611b81565b80156109555780601f1061092a57610100808354040283529160200191610955565b820191906000526020600020905b81548152906001019060200180831161093857829003601f168201915b5050505050815250509050600073ffffffffffffffffffffffffffffffffffffffff16816000015173ffffffffffffffffffffffffffffffffffffffff16036109d3576040517f08c379a00000000000000000000000000000000000000000000000000000000081526004016109ca90611f10565b60405180910390fd5b60008160000151905060008473ffffffffffffffffffffffffffffffffffffffff1663bd7bbc306040518163ffffffff1660e01b8152600401602060405180830381865afa158015610a29573d6000803e3d6000fd5b505050506040513d601f19601f82011682018060405250810190610a4d9190611f45565b86610a589190611fa1565b905060008273ffffffffffffffffffffffffffffffffffffffff166370a08231336040518263ffffffff1660e01b8152600401610a9591906115c0565b602060405180830381865afa158015610ab2573d6000803e3d6000fd5b505050506040513d601f19601f82011682018060405250810190610ad69190611f45565b905081811015610b1b576040517f08c379a0000000000000000000000000000000000000000000000000000000008152600401610b129061202f565b60405180910390fd5b610b4883600360009054906101000a900473ffffffffffffffffffffffffffffffffffffffff1684610f4c565b8573ffffffffffffffffffffffffffffffffffffffff166377d9e3b733896040518363ffffffff1660e01b8152600401610b83929190612075565b600060405180830381600087803b158015610b9d57600080fd5b505af1158015610bb1573d6000803e3d6000fd5b5050505050505050610bc1611101565b505050565b610bce61111a565b610bd860006111a1565b565b600460009054906101000a900473ffffffffffffffffffffffffffffffffffffffff1673ffffffffffffffffffffffffffffffffffffffff163373ffffffffffffffffffffffffffffffffffffffff161480610c685750610c39610f14565b73ffffffffffffffffffffffffffffffffffffffff163373ffffffffffffffffffffffffffffffffffffffff16145b610c7157600080fd5b600660008273ffffffffffffffffffffffffffffffffffffffff1673ffffffffffffffffffffffffffffffffffffffff168152602001908152602001600020600080820160006101000a81549073ffffffffffffffffffffffffffffffffffffffff0219169055600182016000610ce89190611467565b505050565b600460009054906101000a900473ffffffffffffffffffffffffffffffffffffffff1673ffffffffffffffffffffffffffffffffffffffff163373ffffffffffffffffffffffffffffffffffffffff161480610d7b5750610d4c610f14565b73ffffffffffffffffffffffffffffffffffffffff163373ffffffffffffffffffffffffffffffffffffffff16145b610d8457600080fd5b6000610db1600160009054906101000a900473ffffffffffffffffffffffffffffffffffffffff16611278565b905060008190508073ffffffffffffffffffffffffffffffffffffffff166352e4607488878760008054906101000a900473ffffffffffffffffffffffffffffffffffffffff16600260009054906101000a900473ffffffffffffffffffffffffffffffffffffffff168c8a6040518863ffffffff1660e01b8152600401610e3f9796959493929190612123565b600060405180830381600087803b158015610e5957600080fd5b505af1158015610e6d573d6000803e3d6000fd5b505050506005819080600181540180825580915050600190039060005260206000200160009091909190916101000a81548173ffffffffffffffffffffffffffffffffffffffff021916908373ffffffffffffffffffffffffffffffffffffffff1602179055507f2e2b3f61b70d2d131b2a807371103cc98d51adcaa5e9a8f9c32658ad8426e74e82604051610f0391906115c0565b60405180910390a150505050505050565b600080610f1f611329565b90508060000160009054906101000a900473ffffffffffffffffffffffffffffffffffffffff1691505090565b610f546110aa565b60003390508373ffffffffffffffffffffffffffffffffffffffff166323b872dd8285856040518463ffffffff1660e01b8152600401610f96939291906121a0565b6020604051808303816000875af1158015610fb5573d6000803e3d6000fd5b505050506040513d601f19601f82011682018060405250810190610fd9919061220f565b5050610fe3611101565b505050565b610ff061111a565b600073ffffffffffffffffffffffffffffffffffffffff168173ffffffffffffffffffffffffffffffffffffffff16036110625760006040517f1e4fbdf700000000000000000000000000000000000000000000000000000000815260040161105991906115c0565b60405180910390fd5b61106b816111a1565b50565b60007ff0c57e16840df040f15088dc2f81fe391c3923bec73e23a9662efc9c229c6a00905090565b61109e611351565b6110a781611391565b50565b60006110b4611417565b905060028160000154036110f4576040517f3ee5aeb500000000000000000000000000000000000000000000000000000000815260040160405180910390fd5b6002816000018190555050565b600061110b611417565b90506001816000018190555050565b61112261143f565b73ffffffffffffffffffffffffffffffffffffffff16611140610f14565b73ffffffffffffffffffffffffffffffffffffffff161461119f5761116361143f565b6040517f118cdaa700000000000000000000000000000000000000000000000000000000815260040161119691906115c0565b60405180910390fd5b565b60006111ab611329565b905060008160000160009054906101000a900473ffffffffffffffffffffffffffffffffffffffff169050828260000160006101000a81548173ffffffffffffffffffffffffffffffffffffffff021916908373ffffffffffffffffffffffffffffffffffffffff1602179055508273ffffffffffffffffffffffffffffffffffffffff168173ffffffffffffffffffffffffffffffffffffffff167f8be0079c531659141344cd1fd0a4f28419497f9722a3daafe3b4186f6b6457e060405160405180910390a3505050565b6000763d602d80600a3d3981f3363d3d373d3d3d363d730000008260601b60e81c176000526e5af43d82803e903d91602b57fd5bf38260781b17602052603760096000f09050600073ffffffffffffffffffffffffffffffffffffffff168173ffffffffffffffffffffffffffffffffffffffff1603611324576040517fc2f868f400000000000000000000000000000000000000000000000000000000815260040160405180910390fd5b919050565b60007f9016d09d72d40fdae2fd8ceac6b6234c7706214fd39c1cd1e609a0528c199300905090565b611359611447565b61138f576040517fd7e6bcf800000000000000000000000000000000000000000000000000000000815260040160405180910390fd5b565b611399611351565b600073ffffffffffffffffffffffffffffffffffffffff168173ffffffffffffffffffffffffffffffffffffffff160361140b5760006040517f1e4fbdf700000000000000000000000000000000000000000000000000000000815260040161140291906115c0565b60405180910390fd5b611414816111a1565b50565b60007f9b779b17422d0df92223018b32b4d1fa46e071723d6817e2486d003becc55f00905090565b600033905090565b600061145161106e565b60000160089054906101000a900460ff16905090565b50805461147390611b81565b6000825580601f1061148557506114a4565b601f0160209004906000526020600020908101906114a391906114a7565b5b50565b5b808211156114c05760008160009055506001016114a8565b5090565b6000604051905090565b600080fd5b600080fd5b600073ffffffffffffffffffffffffffffffffffffffff82169050919050565b6000611503826114d8565b9050919050565b611513816114f8565b811461151e57600080fd5b50565b6000813590506115308161150a565b92915050565b600080600080600060a08688031215611552576115516114ce565b5b600061156088828901611521565b955050602061157188828901611521565b945050604061158288828901611521565b935050606061159388828901611521565b92505060806115a488828901611521565b9150509295509295909350565b6115ba816114f8565b82525050565b60006020820190506115d560008301846115b1565b92915050565b600080fd5b600080fd5b6000601f19601f8301169050919050565b7f4e487b7100000000000000000000000000000000000000000000000000000000600052604160045260246000fd5b61162e826115e5565b810181811067ffffffffffffffff8211171561164d5761164c6115f6565b5b80604052505050565b60006116606114c4565b905061166c8282611625565b919050565b600067ffffffffffffffff82111561168c5761168b6115f6565b5b611695826115e5565b9050602081019050919050565b82818337600083830152505050565b60006116c46116bf84611671565b611656565b9050828152602081018484840111156116e0576116df6115e0565b5b6116eb8482856116a2565b509392505050565b600082601f830112611708576117076115db565b5b81356117188482602086016116b1565b91505092915050565b60008060408385031215611738576117376114ce565b5b600061174685828601611521565b925050602083013567ffffffffffffffff811115611767576117666114d3565b5b611773858286016116f3565b9150509250929050565b6000819050919050565b6117908161177d565b811461179b57600080fd5b50565b6000813590506117ad81611787565b92915050565b600080fd5b600080fd5b60008083601f8401126117d3576117d26115db565b5b8235905067ffffffffffffffff8111156117f0576117ef6117b3565b5b60208301915083600182028301111561180c5761180b6117b8565b5b9250929050565b60008060008060006080868803121561182f5761182e6114ce565b5b600061183d88828901611521565b955050602061184e88828901611521565b945050604061185f8882890161179e565b935050606086013567ffffffffffffffff8111156118805761187f6114d3565b5b61188c888289016117bd565b92509250509295509295909350565b60006118a6826114f8565b9050919050565b6118b68161189b565b81146118c157600080fd5b50565b6000813590506118d3816118ad565b92915050565b6000806000606084860312156118f2576118f16114ce565b5b60006119008682870161179e565b9350506020611911868287016118c4565b925050604061192286828701611521565b9150509250925092565b600060208284031215611942576119416114ce565b5b600061195084828501611521565b91505092915050565b6000819050919050565b61196c81611959565b811461197757600080fd5b50565b60008135905061198981611963565b92915050565b600080600080600060a086880312156119ab576119aa6114ce565b5b60006119b98882890161197a565b95505060206119ca88828901611521565b945050604086013567ffffffffffffffff8111156119eb576119ea6114d3565b5b6119f7888289016116f3565b935050606086013567ffffffffffffffff811115611a1857611a176114d3565b5b611a24888289016116f3565b9250506080611a358882890161179e565b9150509295509295909350565b6000611a4d826114f8565b9050919050565b611a5d81611a42565b8114611a6857600080fd5b50565b600081359050611a7a81611a54565b92915050565b600080600060608486031215611a9957611a986114ce565b5b6000611aa786828701611a6b565b9350506020611ab886828701611521565b9250506040611ac98682870161179e565b9150509250925092565b6000819050919050565b600067ffffffffffffffff82169050919050565b6000819050919050565b6000611b16611b11611b0c84611ad3565b611af1565b611add565b9050919050565b611b2681611afb565b82525050565b6000602082019050611b416000830184611b1d565b92915050565b600081519050919050565b7f4e487b7100000000000000000000000000000000000000000000000000000000600052602260045260246000fd5b60006002820490506001821680611b9957607f821691505b602082108103611bac57611bab611b52565b5b50919050565b60008190508160005260206000209050919050565b60006020601f8301049050919050565b600082821b905092915050565b600060088302611c147fffffffffffffffffffffffffffffffffffffffffffffffffffffffffffffffff82611bd7565b611c1e8683611bd7565b95508019841693508086168417925050509392505050565b6000611c51611c4c611c478461177d565b611af1565b61177d565b9050919050565b6000819050919050565b611c6b83611c36565b611c7f611c7782611c58565b848454611be4565b825550505050565b600090565b611c94611c87565b611c9f818484611c62565b505050565b5b81811015611cc357611cb8600082611c8c565b600181019050611ca5565b5050565b601f821115611d0857611cd981611bb2565b611ce284611bc7565b81016020851015611cf1578190505b611d05611cfd85611bc7565b830182611ca4565b50505b505050565b600082821c905092915050565b6000611d2b60001984600802611d0d565b1980831691505092915050565b6000611d448383611d1a565b9150826002028217905092915050565b611d5d82611b47565b67ffffffffffffffff811115611d7657611d756115f6565b5b611d808254611b81565b611d8b828285611cc7565b600060209050601f831160018114611dbe5760008415611dac578287015190505b611db68582611d38565b865550611e1e565b601f198416611dcc86611bb2565b60005b82811015611df457848901518255600182019150602085019450602081019050611dcf565b86831015611e115784890151611e0d601f891682611d1a565b8355505b6001600288020188555050505b505050505050565b611e2f8161177d565b82525050565b600082825260208201905092915050565b6000611e528385611e35565b9350611e5f8385846116a2565b611e68836115e5565b840190509392505050565b6000606082019050611e8860008301876115b1565b611e956020830186611e26565b8181036040830152611ea8818486611e46565b905095945050505050565b600082825260208201905092915050565b7f4552525f494e56414c49445f5041594d454e545f4d4554484f44000000000000600082015250565b6000611efa601a83611eb3565b9150611f0582611ec4565b602082019050919050565b60006020820190508181036000830152611f2981611eed565b9050919050565b600081519050611f3f81611787565b92915050565b600060208284031215611f5b57611f5a6114ce565b5b6000611f6984828501611f30565b91505092915050565b7f4e487b7100000000000000000000000000000000000000000000000000000000600052601160045260246000fd5b6000611fac8261177d565b9150611fb78361177d565b9250828202611fc58161177d565b91508282048414831517611fdc57611fdb611f72565b5b5092915050565b7f4552525f494e53554646494349454e545f46554e445300000000000000000000600082015250565b6000612019601683611eb3565b915061202482611fe3565b602082019050919050565b600060208201905081810360008301526120488161200c565b9050919050565b50565b600061205f600083611e35565b915061206a8261204f565b600082019050919050565b600060608201905061208a60008301856115b1565b6120976020830184611e26565b81810360408301526120a881612052565b90509392505050565b6120ba81611959565b82525050565b60005b838110156120de5780820151818401526020810190506120c3565b60008484015250505050565b60006120f582611b47565b6120ff8185611eb3565b935061210f8185602086016120c0565b612118816115e5565b840191505092915050565b600060e082019050612138600083018a6120b1565b818103602083015261214a81896120ea565b9050818103604083015261215e81886120ea565b905061216d60608301876115b1565b61217a60808301866115b1565b61218760a08301856115b1565b61219460c0830184611e26565b98975050505050505050565b60006060820190506121b560008301866115b1565b6121c260208301856115b1565b6121cf6040830184611e26565b949350505050565b60008115159050919050565b6121ec816121d7565b81146121f757600080fd5b50565b600081519050612209816121e3565b92915050565b600060208284031215612225576122246114ce565b5b6000612233848285016121fa565b9150509291505056fea2646970667358221220cdf0a162d5c0e010f52c53fca282c87665d1cfbd79ddffd0795aaaf31bacc0ef64736f6c63430008140033",
  "linkReferences": {},
  "deployedLinkReferences": {}
}