{
  "_format": "hh-sol-artifact-1",
  "contractName": "AssetToken",
  "sourceName": "contracts/assetToken.sol",
  "abi": [
    {
      "inputs": [
        {
          "internalType": "address",
          "name": "spender",
          "type": "address"
        },
        {
          "internalType": "uint256",
          "name": "allowance",
          "type": "uint256"
        },
        {
          "internalType": "uint256",
          "name": "needed",
          "type": "uint256"
        }
      ],
      "name": "ERC20InsufficientAllowance",
      "type": "error"
    },
    {
      "inputs": [
        {
          "internalType": "address",
          "name": "sender",
          "type": "address"
        },
        {
          "internalType": "uint256",
          "name": "balance",
          "type": "uint256"
        },
        {
          "internalType": "uint256",
          "name": "needed",
          "type": "uint256"
        }
      ],
      "name": "ERC20InsufficientBalance",
      "type": "error"
    },
    {
      "inputs": [
        {
          "internalType": "address",
          "name": "approver",
          "type": "address"
        }
      ],
      "name": "ERC20InvalidApprover",
      "type": "error"
    },
    {
      "inputs": [
        {
          "internalType": "address",
          "name": "receiver",
          "type": "address"
        }
      ],
      "name": "ERC20InvalidReceiver",
      "type": "error"
    },
    {
      "inputs": [
        {
          "internalType": "address",
          "name": "sender",
          "type": "address"
        }
      ],
      "name": "ERC20InvalidSender",
      "type": "error"
    },
    {
      "inputs": [
        {
          "internalType": "address",
          "name": "spender",
          "type": "address"
        }
      ],
      "name": "ERC20InvalidSpender",
      "type": "error"
    },
    {
      "inputs": [],
      "name": "InvalidInitialization",
      "type": "error"
    },
    {
      "inputs": [],
      "name": "NotInitializing",
      "type": "error"
    },
    {
      "anonymous": false,
      "inputs": [
        {
          "indexed": true,
          "internalType": "address",
          "name": "owner",
          "type": "address"
        },
        {
          "indexed": true,
          "internalType": "address",
          "name": "spender",
          "type": "address"
        },
        {
          "indexed": false,
          "internalType": "uint256",
          "name": "value",
          "type": "uint256"
        }
      ],
      "name": "Approval",
      "type": "event"
    },
    {
      "anonymous": false,
      "inputs": [
        {
          "indexed": false,
          "internalType": "address",
          "name": "_controller",
          "type": "address"
        },
        {
          "indexed": true,
          "internalType": "address",
          "name": "_tokenHolder",
          "type": "address"
        },
        {
          "indexed": false,
          "internalType": "uint256",
          "name": "_value",
          "type": "uint256"
        },
        {
          "indexed": false,
          "internalType": "bytes",
          "name": "_data",
          "type": "bytes"
        },
        {
          "indexed": false,
          "internalType": "bytes",
          "name": "_operatorData",
          "type": "bytes"
        }
      ],
      "name": "ControllerRedemption",
      "type": "event"
    },
    {
      "anonymous": false,
      "inputs": [
        {
          "indexed": false,
          "internalType": "address",
          "name": "_controller",
          "type": "address"
        },
        {
          "indexed": true,
          "internalType": "address",
          "name": "_from",
          "type": "address"
        },
        {
          "indexed": true,
          "internalType": "address",
          "name": "_to",
          "type": "address"
        },
        {
          "indexed": false,
          "internalType": "uint256",
          "name": "_value",
          "type": "uint256"
        },
        {
          "indexed": false,
          "internalType": "bytes",
          "name": "_data",
          "type": "bytes"
        },
        {
          "indexed": false,
          "internalType": "bytes",
          "name": "_operatorData",
          "type": "bytes"
        }
      ],
      "name": "ControllerTransfer",
      "type": "event"
    },
    {
      "anonymous": false,
      "inputs": [
        {
          "indexed": true,
          "internalType": "bytes32",
          "name": "_name",
          "type": "bytes32"
        },
        {
          "indexed": false,
          "internalType": "string",
          "name": "_uri",
          "type": "string"
        },
        {
          "indexed": false,
          "internalType": "bytes32",
          "name": "_documentHash",
          "type": "bytes32"
        }
      ],
      "name": "DocumentRemoved",
      "type": "event"
    },
    {
      "anonymous": false,
      "inputs": [
        {
          "indexed": true,
          "internalType": "bytes32",
          "name": "_name",
          "type": "bytes32"
        },
        {
          "indexed": false,
          "internalType": "string",
          "name": "_uri",
          "type": "string"
        },
        {
          "indexed": false,
          "internalType": "bytes32",
          "name": "_documentHash",
          "type": "bytes32"
        }
      ],
      "name": "DocumentUpdated",
      "type": "event"
    },
    {
      "anonymous": false,
      "inputs": [],
      "name": "FinalizedControllerFeature",
      "type": "event"
    },
    {
      "anonymous": false,
      "inputs": [
        {
          "indexed": false,
          "internalType": "uint64",
          "name": "version",
          "type": "uint64"
        }
      ],
      "name": "Initialized",
      "type": "event"
    },
    {
      "anonymous": false,
      "inputs": [
        {
          "indexed": true,
          "internalType": "address",
          "name": "_operator",
          "type": "address"
        },
        {
          "indexed": true,
          "internalType": "address",
          "name": "_to",
          "type": "address"
        },
        {
          "indexed": false,
          "internalType": "uint256",
          "name": "_value",
          "type": "uint256"
        },
        {
          "indexed": false,
          "internalType": "bytes",
          "name": "_data",
          "type": "bytes"
        }
      ],
      "name": "Issued",
      "type": "event"
    },
    {
      "anonymous": false,
      "inputs": [
        {
          "indexed": true,
          "internalType": "address",
          "name": "_operator",
          "type": "address"
        },
        {
          "indexed": true,
          "internalType": "address",
          "name": "_from",
          "type": "address"
        },
        {
          "indexed": false,
          "internalType": "uint256",
          "name": "_value",
          "type": "uint256"
        },
        {
          "indexed": false,
          "internalType": "bytes",
          "name": "_data",
          "type": "bytes"
        }
      ],
      "name": "Redeemed",
      "type": "event"
    },
    {
      "anonymous": false,
      "inputs": [
        {
          "indexed": true,
          "internalType": "address",
          "name": "from",
          "type": "address"
        },
        {
          "indexed": true,
          "internalType": "address",
          "name": "to",
          "type": "address"
        },
        {
          "indexed": false,
          "internalType": "uint256",
          "name": "value",
          "type": "uint256"
        }
      ],
      "name": "Transfer",
      "type": "event"
    },
    {
      "inputs": [
        {
          "internalType": "address",
          "name": "owner",
          "type": "address"
        },
        {
          "internalType": "address",
          "name": "spender",
          "type": "address"
        }
      ],
      "name": "allowance",
      "outputs": [
        {
          "internalType": "uint256",
          "name": "",
          "type": "uint256"
        }
      ],
      "stateMutability": "view",
      "type": "function"
    },
    {
      "inputs": [
        {
          "internalType": "address",
          "name": "spender",
          "type": "address"
        },
        {
          "internalType": "uint256",
          "name": "value",
          "type": "uint256"
        }
      ],
      "name": "approve",
      "outputs": [
        {
          "internalType": "bool",
          "name": "",
          "type": "bool"
        }
      ],
      "stateMutability": "nonpayable",
      "type": "function"
    },
    {
      "inputs": [
        {
          "internalType": "address",
          "name": "_controller",
          "type": "address"
        }
      ],
      "name": "assignController",
      "outputs": [],
      "stateMutability": "nonpayable",
      "type": "function"
    },
    {
      "inputs": [
        {
          "internalType": "address",
          "name": "account",
          "type": "address"
        }
      ],
      "name": "balanceOf",
      "outputs": [
        {
          "internalType": "uint256",
          "name": "",
          "type": "uint256"
        }
      ],
      "stateMutability": "view",
      "type": "function"
    },
    {
      "inputs": [
        {
          "internalType": "uint256",
          "name": "value",
          "type": "uint256"
        }
      ],
      "name": "burn",
      "outputs": [],
      "stateMutability": "nonpayable",
      "type": "function"
    },
    {
      "inputs": [
        {
          "internalType": "address",
          "name": "account",
          "type": "address"
        },
        {
          "internalType": "uint256",
          "name": "value",
          "type": "uint256"
        }
      ],
      "name": "burnFrom",
      "outputs": [],
      "stateMutability": "nonpayable",
      "type": "function"
    },
    {
      "inputs": [
        {
          "internalType": "address",
          "name": "_to",
          "type": "address"
        },
        {
          "internalType": "uint256",
          "name": "_value",
          "type": "uint256"
        },
        {
          "internalType": "bytes",
          "name": "_data",
          "type": "bytes"
        }
      ],
      "name": "canTransfer",
      "outputs": [
        {
          "internalType": "bool",
          "name": "",
          "type": "bool"
        },
        {
          "internalType": "uint256",
          "name": "",
          "type": "uint256"
        }
      ],
      "stateMutability": "view",
      "type": "function"
    },
    {
      "inputs": [
        {
          "internalType": "address",
          "name": "_from",
          "type": "address"
        },
        {
          "internalType": "address",
          "name": "_to",
          "type": "address"
        },
        {
          "internalType": "uint256",
          "name": "_value",
          "type": "uint256"
        },
        {
          "internalType": "bytes",
          "name": "_data",
          "type": "bytes"
        }
      ],
      "name": "canTransferFrom",
      "outputs": [
        {
          "internalType": "bool",
          "name": "",
          "type": "bool"
        },
        {
          "internalType": "uint256",
          "name": "",
          "type": "uint256"
        }
      ],
      "stateMutability": "view",
      "type": "function"
    },
    {
      "inputs": [],
      "name": "controller",
      "outputs": [
        {
          "internalType": "address",
          "name": "",
          "type": "address"
        }
      ],
      "stateMutability": "view",
      "type": "function"
    },
    {
      "inputs": [
        {
          "internalType": "address",
          "name": "_tokenHolder",
          "type": "address"
        },
        {
          "internalType": "uint256",
          "name": "_value",
          "type": "uint256"
        },
        {
          "internalType": "bytes",
          "name": "_data",
          "type": "bytes"
        },
        {
          "internalType": "bytes",
          "name": "_operatorData",
          "type": "bytes"
        }
      ],
      "name": "controllerRedeem",
      "outputs": [],
      "stateMutability": "nonpayable",
      "type": "function"
    },
    {
      "inputs": [
        {
          "internalType": "address",
          "name": "_from",
          "type": "address"
        },
        {
          "internalType": "address",
          "name": "_to",
          "type": "address"
        },
        {
          "internalType": "uint256",
          "name": "_value",
          "type": "uint256"
        },
        {
          "internalType": "bytes",
          "name": "_data",
          "type": "bytes"
        },
        {
          "internalType": "bytes",
          "name": "_operatorData",
          "type": "bytes"
        }
      ],
      "name": "controllerTransfer",
      "outputs": [],
      "stateMutability": "nonpayable",
      "type": "function"
    },
    {
      "inputs": [],
      "name": "decimals",
      "outputs": [
        {
          "internalType": "uint8",
          "name": "",
          "type": "uint8"
        }
      ],
      "stateMutability": "view",
      "type": "function"
    },
    {
      "inputs": [],
      "name": "finalizeControllable",
      "outputs": [],
      "stateMutability": "nonpayable",
      "type": "function"
    },
    {
      "inputs": [],
      "name": "getAllDocuments",
      "outputs": [
        {
          "internalType": "bytes32[]",
          "name": "",
          "type": "bytes32[]"
        }
      ],
      "stateMutability": "view",
      "type": "function"
    },
    {
      "inputs": [
        {
          "internalType": "bytes32",
          "name": "_name",
          "type": "bytes32"
        }
      ],
      "name": "getDocument",
      "outputs": [
        {
          "internalType": "string",
          "name": "",
          "type": "string"
        },
        {
          "internalType": "bytes32",
          "name": "",
          "type": "bytes32"
        },
        {
          "internalType": "uint256",
          "name": "",
          "type": "uint256"
        }
      ],
      "stateMutability": "view",
      "type": "function"
    },
    {
      "inputs": [
        {
          "internalType": "bytes32",
          "name": "_salt",
          "type": "bytes32"
        },
        {
          "internalType": "string",
          "name": "_tokenName",
          "type": "string"
        },
        {
          "internalType": "string",
          "name": "_tokenSymbol",
          "type": "string"
        },
        {
          "internalType": "address",
          "name": "_assetAdmin",
          "type": "address"
        },
        {
          "internalType": "address",
          "name": "_controller",
          "type": "address"
        },
        {
          "internalType": "address",
          "name": "interchainTokenServiceAddress",
          "type": "address"
        },
        {
          "internalType": "uint256",
          "name": "_tokenOfferingPrice",
          "type": "uint256"
        }
      ],
      "name": "initialize",
      "outputs": [],
      "stateMutability": "nonpayable",
      "type": "function"
    },
    {
      "inputs": [
        {
          "internalType": "string",
          "name": "destinationChain",
          "type": "string"
        },
        {
          "internalType": "bytes",
          "name": "recipient",
          "type": "bytes"
        },
        {
          "internalType": "uint256",
          "name": "amount",
          "type": "uint256"
        },
        {
          "internalType": "bytes",
          "name": "metadata",
          "type": "bytes"
        }
      ],
      "name": "interchainTransfer",
      "outputs": [],
      "stateMutability": "payable",
      "type": "function"
    },
    {
      "inputs": [
        {
          "internalType": "address",
          "name": "sender",
          "type": "address"
        },
        {
          "internalType": "string",
          "name": "destinationChain",
          "type": "string"
        },
        {
          "internalType": "bytes",
          "name": "recipient",
          "type": "bytes"
        },
        {
          "internalType": "uint256",
          "name": "amount",
          "type": "uint256"
        },
        {
          "internalType": "bytes",
          "name": "metadata",
          "type": "bytes"
        }
      ],
      "name": "interchainTransferFrom",
      "outputs": [],
      "stateMutability": "payable",
      "type": "function"
    },
    {
      "inputs": [],
      "name": "isControllable",
      "outputs": [
        {
          "internalType": "bool",
          "name": "",
          "type": "bool"
        }
      ],
      "stateMutability": "view",
      "type": "function"
    },
    {
      "inputs": [],
      "name": "isIssuable",
      "outputs": [
        {
          "internalType": "bool",
          "name": "",
          "type": "bool"
        }
      ],
      "stateMutability": "view",
      "type": "function"
    },
    {
      "inputs": [
        {
          "internalType": "address",
          "name": "_tokenHolder",
          "type": "address"
        },
        {
          "internalType": "uint256",
          "name": "_value",
          "type": "uint256"
        },
        {
          "internalType": "bytes",
          "name": "_data",
          "type": "bytes"
        }
      ],
      "name": "issue",
      "outputs": [],
      "stateMutability": "nonpayable",
      "type": "function"
    },
    {
      "inputs": [],
      "name": "name",
      "outputs": [
        {
          "internalType": "string",
          "name": "",
          "type": "string"
        }
      ],
      "stateMutability": "view",
      "type": "function"
    },
    {
      "inputs": [
        {
          "internalType": "uint256",
          "name": "_value",
          "type": "uint256"
        },
        {
          "internalType": "bytes",
          "name": "_data",
          "type": "bytes"
        }
      ],
      "name": "redeem",
      "outputs": [],
      "stateMutability": "nonpayable",
      "type": "function"
    },
    {
      "inputs": [
        {
          "internalType": "address",
          "name": "_tokenHolder",
          "type": "address"
        },
        {
          "internalType": "uint256",
          "name": "_value",
          "type": "uint256"
        },
        {
          "internalType": "bytes",
          "name": "_data",
          "type": "bytes"
        }
      ],
      "name": "redeemFrom",
      "outputs": [],
      "stateMutability": "nonpayable",
      "type": "function"
    },
    {
      "inputs": [
        {
          "internalType": "bytes32",
          "name": "_name",
          "type": "bytes32"
        }
      ],
      "name": "removeDocument",
      "outputs": [],
      "stateMutability": "nonpayable",
      "type": "function"
    },
    {
      "inputs": [],
      "name": "service",
      "outputs": [
        {
          "internalType": "contract IInterchainTokenService",
          "name": "",
          "type": "address"
        }
      ],
      "stateMutability": "view",
      "type": "function"
    },
    {
      "inputs": [
        {
          "internalType": "bytes32",
          "name": "_name",
          "type": "bytes32"
        },
        {
          "internalType": "string",
          "name": "_uri",
          "type": "string"
        },
        {
          "internalType": "bytes32",
          "name": "_documentHash",
          "type": "bytes32"
        }
      ],
      "name": "setDocument",
      "outputs": [],
      "stateMutability": "nonpayable",
      "type": "function"
    },
    {
      "inputs": [
        {
          "internalType": "address",
          "name": "_tokenManager",
          "type": "address"
        }
      ],
      "name": "setTokenManager",
      "outputs": [],
      "stateMutability": "nonpayable",
      "type": "function"
    },
    {
      "inputs": [],
      "name": "symbol",
      "outputs": [
        {
          "internalType": "string",
          "name": "",
          "type": "string"
        }
      ],
      "stateMutability": "view",
      "type": "function"
    },
    {
      "inputs": [],
      "name": "tokenManager",
      "outputs": [
        {
          "internalType": "contract ITokenManager",
          "name": "",
          "type": "address"
        }
      ],
      "stateMutability": "view",
      "type": "function"
    },
    {
      "inputs": [
        {
          "internalType": "address",
          "name": "_buyer",
          "type": "address"
        },
        {
          "internalType": "uint256",
          "name": "_value",
          "type": "uint256"
        },
        {
          "internalType": "bytes",
          "name": "_data",
          "type": "bytes"
        }
      ],
      "name": "tokenOffering",
      "outputs": [],
      "stateMutability": "nonpayable",
      "type": "function"
    },
    {
      "inputs": [],
      "name": "tokenOfferingPrice",
      "outputs": [
        {
          "internalType": "uint256",
          "name": "",
          "type": "uint256"
        }
      ],
      "stateMutability": "view",
      "type": "function"
    },
    {
      "inputs": [],
      "name": "totalSupply",
      "outputs": [
        {
          "internalType": "uint256",
          "name": "",
          "type": "uint256"
        }
      ],
      "stateMutability": "view",
      "type": "function"
    },
    {
      "inputs": [
        {
          "internalType": "address",
          "name": "to",
          "type": "address"
        },
        {
          "internalType": "uint256",
          "name": "value",
          "type": "uint256"
        }
      ],
      "name": "transfer",
      "outputs": [
        {
          "internalType": "bool",
          "name": "",
          "type": "bool"
        }
      ],
      "stateMutability": "nonpayable",
      "type": "function"
    },
    {
      "inputs": [
        {
          "internalType": "address",
          "name": "from",
          "type": "address"
        },
        {
          "internalType": "address",
          "name": "to",
          "type": "address"
        },
        {
          "internalType": "uint256",
          "name": "value",
          "type": "uint256"
        }
      ],
      "name": "transferFrom",
      "outputs": [
        {
          "internalType": "bool",
          "name": "",
          "type": "bool"
        }
      ],
      "stateMutability": "nonpayable",
      "type": "function"
    },
    {
      "inputs": [
        {
          "internalType": "address",
          "name": "_from",
          "type": "address"
        },
        {
          "internalType": "address",
          "name": "_to",
          "type": "address"
        },
        {
          "internalType": "uint256",
          "name": "_value",
          "type": "uint256"
        },
        {
          "internalType": "bytes",
          "name": "_data",
          "type": "bytes"
        }
      ],
      "name": "transferFromWithData",
      "outputs": [],
      "stateMutability": "nonpayable",
      "type": "function"
    },
    {
      "inputs": [
        {
          "internalType": "address",
          "name": "_to",
          "type": "address"
        },
        {
          "internalType": "uint256",
          "name": "_value",
          "type": "uint256"
        },
        {
          "internalType": "bytes",
          "name": "_data",
          "type": "bytes"
        }
      ],
      "name": "transferWithData",
      "outputs": [],
      "stateMutability": "nonpayable",
      "type": "function"
    }
  ],
  "bytecode": "0x608060405234801561001057600080fd5b5061405d806100206000396000f3fe60806040526004361061021a5760003560e01c80637cb2b79c11610123578063bc0ba3c5116100ab578063e77c646d1161006f578063e77c646d146107cb578063ec1bc1ac146107f4578063ee532f311461081d578063f282527a14610846578063f77c47911461086f5761021a565b8063bc0ba3c5146106f3578063bd7bbc301461070f578063c35018481461073a578063d598d4c914610763578063dd62ed3e1461078e5761021a565b8063a213934f116100f2578063a213934f1461061b578063a60fee3714610632578063a9059cbb1461064e578063b10d6b411461068b578063bb3acde9146106ca5761021a565b80637cb2b79c1461057357806395d89b411461059c5780639675193c146105c75780639fa5f50b146105f05761021a565b80632bc6acc3116101a65780634c783bf5116101755780634c783bf51461049057806352e46074146104bb57806370a08231146104e457806377d9e3b71461052157806379cc67901461054a5761021a565b80632bc6acc3146103e85780632f1cae8514610411578063313ce5671461043c57806342966c68146104675761021a565b806318160ddd116101ed57806318160ddd146102ee5780631badb25c1461031957806323b872dd146103575780632535f762146103945780632a709b14146103bd5761021a565b8063010648ca1461021f57806306fdde0314610248578063095ea7b314610273578063122eb575146102b0575b600080fd5b34801561022b57600080fd5b5061024660048036038101906102419190612aa6565b61089a565b005b34801561025457600080fd5b5061025d610b00565b60405161026a9190612baa565b60405180910390f35b34801561027f57600080fd5b5061029a60048036038101906102959190612c60565b610ba1565b6040516102a79190612cbb565b60405180910390f35b3480156102bc57600080fd5b506102d760048036038101906102d29190612d2c565b610bc4565b6040516102e5929190612dc3565b60405180910390f35b3480156102fa57600080fd5b50610303610c9a565b6040516103109190612dec565b60405180910390f35b34801561032557600080fd5b50610340600480360381019061033b9190612e07565b610cb2565b60405161034e929190612dc3565b60405180910390f35b34801561036357600080fd5b5061037e60048036038101906103799190612e7b565b610d5f565b60405161038b9190612cbb565b60405180910390f35b3480156103a057600080fd5b506103bb60048036038101906103b69190612e07565b610d8e565b005b3480156103c957600080fd5b506103d2610d9f565b6040516103df9190612f2d565b60405180910390f35b3480156103f457600080fd5b5061040f600480360381019061040a9190612f48565b610dc5565b005b34801561041d57600080fd5b50610426610e89565b6040516104339190612cbb565b60405180910390f35b34801561044857600080fd5b50610451610e9f565b60405161045e919061300b565b60405180910390f35b34801561047357600080fd5b5061048e60048036038101906104899190613026565b610ea8565b005b34801561049c57600080fd5b506104a5610ebc565b6040516104b29190612cbb565b60405180910390f35b3480156104c757600080fd5b506104e260048036038101906104dd9190613183565b610f15565b005b3480156104f057600080fd5b5061050b6004803603810190610506919061325d565b61118f565b6040516105189190612dec565b60405180910390f35b34801561052d57600080fd5b5061054860048036038101906105439190612e07565b6111e6565b005b34801561055657600080fd5b50610571600480360381019061056c9190612c60565b611252565b005b34801561057f57600080fd5b5061059a6004803603810190610595919061325d565b611272565b005b3480156105a857600080fd5b506105b1611368565b6040516105be9190612baa565b60405180910390f35b3480156105d357600080fd5b506105ee60048036038101906105e99190612e07565b611409565b005b3480156105fc57600080fd5b50610605611482565b6040516106129190613348565b60405180910390f35b34801561062757600080fd5b506106306114da565b005b61064c6004803603810190610647919061336a565b61168d565b005b34801561065a57600080fd5b5061067560048036038101906106709190612c60565b611832565b6040516106829190612cbb565b60405180910390f35b34801561069757600080fd5b506106b260048036038101906106ad9190613446565b611855565b6040516106c193929190613482565b60405180910390f35b3480156106d657600080fd5b506106f160048036038101906106ec9190612e07565b611937565b005b61070d600480360381019061070891906134c0565b6119fb565b005b34801561071b57600080fd5b50610724611b58565b6040516107319190612dec565b60405180910390f35b34801561074657600080fd5b50610761600480360381019061075c9190613446565b611b5e565b005b34801561076f57600080fd5b50610778611d07565b60405161078591906135aa565b60405180910390f35b34801561079a57600080fd5b506107b560048036038101906107b091906135c5565b611d2d565b6040516107c29190612dec565b60405180910390f35b3480156107d757600080fd5b506107f260048036038101906107ed9190613605565b611dc2565b005b34801561080057600080fd5b5061081b6004803603810190610816919061325d565b611e3b565b005b34801561082957600080fd5b50610844600480360381019061083f9190612d2c565b611fc1565b005b34801561085257600080fd5b5061086d60048036038101906108689190613665565b611fd4565b005b34801561087b57600080fd5b506108846120b1565b6040516108919190613730565b60405180910390f35b600060019054906101000a900473ffffffffffffffffffffffffffffffffffffffff1673ffffffffffffffffffffffffffffffffffffffff163373ffffffffffffffffffffffffffffffffffffffff1614806109435750600160009054906101000a900473ffffffffffffffffffffffffffffffffffffffff1673ffffffffffffffffffffffffffffffffffffffff163373ffffffffffffffffffffffffffffffffffffffff16145b61094c57600080fd5b6000801b8403610991576040517f08c379a000000000000000000000000000000000000000000000000000000000815260040161098890613797565b60405180910390fd5b600083839050116109d7576040517f08c379a00000000000000000000000000000000000000000000000000000000081526004016109ce90613803565b60405180910390fd5b6000600660008681526020019081526020016000206001015403610a1f5760078490806001815401808255809150506001900390600052602060002001600090919091909150555b604051806060016040528082815260200142815260200184848080601f016020809104026020016040519081016040528093929190818152602001838380828437600081840152601f19601f820116905080830192505050505050508152506006600086815260200190815260200160002060008201518160000155602082015181600101556040820151816002019081610aba9190613a25565b50905050837fb4c22d60cd550a815744f04e3ff5278bf19684565ee00e2b084041b6024bd6f6848484604051610af293929190613b24565b60405180910390a250505050565b60606000610b0c6120d7565b9050806003018054610b1d90613852565b80601f0160208091040260200160405190810160405280929190818152602001828054610b4990613852565b8015610b965780601f10610b6b57610100808354040283529160200191610b96565b820191906000526020600020905b815481529060010190602001808311610b7957829003601f168201915b505050505091505090565b600080610bac6120ff565b9050610bb9818585612107565b600191505092915050565b600080600073ffffffffffffffffffffffffffffffffffffffff168673ffffffffffffffffffffffffffffffffffffffff1603610c08576000605791509150610c90565b6000610c133361118f565b905085811015610c2b57600060529250925050610c90565b6000610c368861118f565b90506000610c448289612119565b50905080610c5c576000605094509450505050610c90565b6000610c688b33611d2d565b905080891115610c8357600060539550955050505050610c90565b6001605195509550505050505b9550959350505050565b600080610ca56120d7565b9050806002015491505090565b600080600073ffffffffffffffffffffffffffffffffffffffff168673ffffffffffffffffffffffffffffffffffffffff1603610cf6576000605791509150610d56565b6000610d013361118f565b905085811015610d1957600060529250925050610d56565b6000610d248861118f565b90506000610d328289612119565b50905080610d4a576000605094509450505050610d56565b60016051945094505050505b94509492505050565b600080610d6a6120ff565b9050610d77858285612148565b610d828585856121dc565b60019150509392505050565b610d993385856121dc565b50505050565b600460009054906101000a900473ffffffffffffffffffffffffffffffffffffffff1681565b600360009054906101000a900473ffffffffffffffffffffffffffffffffffffffff1673ffffffffffffffffffffffffffffffffffffffff163373ffffffffffffffffffffffffffffffffffffffff1614610e1f57600080fd5b610e2986866122d0565b8573ffffffffffffffffffffffffffffffffffffffff167f876b7cb47aa150b3a5516188b19ed308752ad4d0ae9a702543353b78163f7589338787878787604051610e7996959493929190613b94565b60405180910390a2505050505050565b60008060009054906101000a900460ff16905090565b60006012905090565b610eb9610eb36120ff565b826122d0565b50565b60008073ffffffffffffffffffffffffffffffffffffffff16600360009054906101000a900473ffffffffffffffffffffffffffffffffffffffff1673ffffffffffffffffffffffffffffffffffffffff161415905090565b6000610f1f612352565b905060008160000160089054906101000a900460ff1615905060008260000160009054906101000a900467ffffffffffffffff1690506000808267ffffffffffffffff16148015610f6d5750825b9050600060018367ffffffffffffffff16148015610fa2575060003073ffffffffffffffffffffffffffffffffffffffff163b145b905081158015610fb0575080155b15610fe7576040517ff92ee8a900000000000000000000000000000000000000000000000000000000815260040160405180910390fd5b60018560000160006101000a81548167ffffffffffffffff021916908367ffffffffffffffff16021790555083156110375760018560000160086101000a81548160ff0219169083151502179055505b88600060016101000a81548173ffffffffffffffffffffffffffffffffffffffff021916908373ffffffffffffffffffffffffffffffffffffffff16021790555033600160006101000a81548173ffffffffffffffffffffffffffffffffffffffff021916908373ffffffffffffffffffffffffffffffffffffffff1602179055506110c38b8b61237a565b60016000806101000a81548160ff0219169083151502179055508560028190555087600360006101000a81548173ffffffffffffffffffffffffffffffffffffffff021916908373ffffffffffffffffffffffffffffffffffffffff16021790555083156111815760008560000160086101000a81548160ff0219169083151502179055507fc7f505b2f371ae2175ee4913f4499e1f2633a7b5936321eed1cdaeb6115181d260016040516111789190613c3a565b60405180910390a15b505050505050505050505050565b60008061119a6120d7565b90508060000160008473ffffffffffffffffffffffffffffffffffffffff1673ffffffffffffffffffffffffffffffffffffffff16815260200190815260200160002054915050919050565b600160009054906101000a900473ffffffffffffffffffffffffffffffffffffffff1673ffffffffffffffffffffffffffffffffffffffff163373ffffffffffffffffffffffffffffffffffffffff161461124057600080fd5b61124c84848484612390565b50505050565b6112648261125e6120ff565b83612148565b61126e82826122d0565b5050565b600060019054906101000a900473ffffffffffffffffffffffffffffffffffffffff1673ffffffffffffffffffffffffffffffffffffffff163373ffffffffffffffffffffffffffffffffffffffff16148061131b5750600160009054906101000a900473ffffffffffffffffffffffffffffffffffffffff1673ffffffffffffffffffffffffffffffffffffffff163373ffffffffffffffffffffffffffffffffffffffff16145b61132457600080fd5b80600460006101000a81548173ffffffffffffffffffffffffffffffffffffffff021916908373ffffffffffffffffffffffffffffffffffffffff16021790555050565b606060006113746120d7565b905080600401805461138590613852565b80601f01602080910402602001604051908101604052809291908181526020018280546113b190613852565b80156113fe5780601f106113d3576101008083540402835291602001916113fe565b820191906000526020600020905b8154815290600101906020018083116113e157829003601f168201915b505050505091505090565b6114138484611252565b8373ffffffffffffffffffffffffffffffffffffffff163373ffffffffffffffffffffffffffffffffffffffff167fb7d0d6b60740753e9f16692a2f479472a1385aec2420fa43225b02f2ffa1afe785858560405161147493929190613c55565b60405180910390a350505050565b606060078054806020026020016040519081016040528092919081815260200182805480156114d057602002820191906000526020600020905b8154815260200190600101908083116114bc575b5050505050905090565b600060019054906101000a900473ffffffffffffffffffffffffffffffffffffffff1673ffffffffffffffffffffffffffffffffffffffff163373ffffffffffffffffffffffffffffffffffffffff1614806115835750600160009054906101000a900473ffffffffffffffffffffffffffffffffffffffff1673ffffffffffffffffffffffffffffffffffffffff163373ffffffffffffffffffffffffffffffffffffffff16145b61158c57600080fd5b600073ffffffffffffffffffffffffffffffffffffffff16600360009054906101000a900473ffffffffffffffffffffffffffffffffffffffff1673ffffffffffffffffffffffffffffffffffffffff160361161d576040517f08c379a000000000000000000000000000000000000000000000000000000000815260040161161490613cd3565b60405180910390fd5b6000600360006101000a81548173ffffffffffffffffffffffffffffffffffffffff021916908373ffffffffffffffffffffffffffffffffffffffff1602179055507f777c956560861bdf04a77b9eb7199e6bc3f770f1c569970f35ac416b86d8d87260405160405180910390a1565b600060019054906101000a900473ffffffffffffffffffffffffffffffffffffffff1673ffffffffffffffffffffffffffffffffffffffff163373ffffffffffffffffffffffffffffffffffffffff1614806117365750600160009054906101000a900473ffffffffffffffffffffffffffffffffffffffff1673ffffffffffffffffffffffffffffffffffffffff163373ffffffffffffffffffffffffffffffffffffffff16145b61173f57600080fd5b600061174b8933611d2d565b90507fffffffffffffffffffffffffffffffffffffffffffffffffffffffffffffffff811461178b5761178a893386846117859190613d22565b612107565b5b600460009054906101000a900473ffffffffffffffffffffffffffffffffffffffff1673ffffffffffffffffffffffffffffffffffffffff1663c6e3c970348b8b8b8b8b8b8b8b6040518a63ffffffff1660e01b81526004016117f5989796959493929190613d56565b6000604051808303818588803b15801561180e57600080fd5b505af1158015611822573d6000803e3d6000fd5b5050505050505050505050505050565b60008061183d6120ff565b905061184a8185856121dc565b600191505092915050565b606060008060066000858152602001908152602001600020600201600660008681526020019081526020016000206000015460066000878152602001908152602001600020600101548280546118aa90613852565b80601f01602080910402602001604051908101604052809291908181526020018280546118d690613852565b80156119235780601f106118f857610100808354040283529160200191611923565b820191906000526020600020905b81548152906001019060200180831161190657829003601f168201915b505050505092509250925092509193909250565b600060019054906101000a900473ffffffffffffffffffffffffffffffffffffffff1673ffffffffffffffffffffffffffffffffffffffff163373ffffffffffffffffffffffffffffffffffffffff1614806119e05750600160009054906101000a900473ffffffffffffffffffffffffffffffffffffffff1673ffffffffffffffffffffffffffffffffffffffff163373ffffffffffffffffffffffffffffffffffffffff16145b6119e957600080fd5b6119f584848484612390565b50505050565b600060019054906101000a900473ffffffffffffffffffffffffffffffffffffffff1673ffffffffffffffffffffffffffffffffffffffff163373ffffffffffffffffffffffffffffffffffffffff161480611aa45750600160009054906101000a900473ffffffffffffffffffffffffffffffffffffffff1673ffffffffffffffffffffffffffffffffffffffff163373ffffffffffffffffffffffffffffffffffffffff16145b611aad57600080fd5b6000339050600460009054906101000a900473ffffffffffffffffffffffffffffffffffffffff1673ffffffffffffffffffffffffffffffffffffffff1663c6e3c97034838b8b8b8b8b8b8b6040518a63ffffffff1660e01b8152600401611b1c989796959493929190613d56565b6000604051808303818588803b158015611b3557600080fd5b505af1158015611b49573d6000803e3d6000fd5b50505050505050505050505050565b60025481565b600060019054906101000a900473ffffffffffffffffffffffffffffffffffffffff1673ffffffffffffffffffffffffffffffffffffffff163373ffffffffffffffffffffffffffffffffffffffff161480611c075750600160009054906101000a900473ffffffffffffffffffffffffffffffffffffffff1673ffffffffffffffffffffffffffffffffffffffff163373ffffffffffffffffffffffffffffffffffffffff16145b611c1057600080fd5b6000600660008381526020019081526020016000206001015403611c69576040517f08c379a0000000000000000000000000000000000000000000000000000000008152600401611c6090613e10565b60405180910390fd5b600660008281526020019081526020016000206000808201600090556001820160009055600282016000611c9d919061299a565b5050807f3d9bba27d3e360d8c80645beed7e991454a8271bf6f269a24f7782be0f0d0654600660008481526020019081526020016000206002016006600085815260200190815260200160002060000154604051611cfc929190613eb4565b60405180910390a250565b600560009054906101000a900473ffffffffffffffffffffffffffffffffffffffff1681565b600080611d386120d7565b90508060010160008573ffffffffffffffffffffffffffffffffffffffff1673ffffffffffffffffffffffffffffffffffffffff16815260200190815260200160002060008473ffffffffffffffffffffffffffffffffffffffff1673ffffffffffffffffffffffffffffffffffffffff1681526020019081526020016000205491505092915050565b611dcc33846122d0565b3373ffffffffffffffffffffffffffffffffffffffff16600073ffffffffffffffffffffffffffffffffffffffff167fb7d0d6b60740753e9f16692a2f479472a1385aec2420fa43225b02f2ffa1afe7858585604051611e2e93929190613c55565b60405180910390a3505050565b600060019054906101000a900473ffffffffffffffffffffffffffffffffffffffff1673ffffffffffffffffffffffffffffffffffffffff163373ffffffffffffffffffffffffffffffffffffffff161480611ee45750600160009054906101000a900473ffffffffffffffffffffffffffffffffffffffff1673ffffffffffffffffffffffffffffffffffffffff163373ffffffffffffffffffffffffffffffffffffffff16145b611eed57600080fd5b600360009054906101000a900473ffffffffffffffffffffffffffffffffffffffff1673ffffffffffffffffffffffffffffffffffffffff168173ffffffffffffffffffffffffffffffffffffffff1603611f7d576040517f08c379a0000000000000000000000000000000000000000000000000000000008152600401611f7490613f30565b60405180910390fd5b80600360006101000a81548173ffffffffffffffffffffffffffffffffffffffff021916908373ffffffffffffffffffffffffffffffffffffffff16021790555050565b611fcc858585610d5f565b505050505050565b600360009054906101000a900473ffffffffffffffffffffffffffffffffffffffff1673ffffffffffffffffffffffffffffffffffffffff163373ffffffffffffffffffffffffffffffffffffffff161461202e57600080fd5b6120398787876121dc565b8573ffffffffffffffffffffffffffffffffffffffff168773ffffffffffffffffffffffffffffffffffffffff167f6bf62b4b9c7b768275122bf70d429efc398a056d669b1efdf6c3976346246d7d3388888888886040516120a096959493929190613b94565b60405180910390a350505050505050565b600360009054906101000a900473ffffffffffffffffffffffffffffffffffffffff1681565b60007f52c63247e1f47db19d5ce0460030c497f067ca4cebf71ba98eeadabe20bace00905090565b600033905090565b6121148383836001612456565b505050565b6000806000838501905084811015612138576000809250925050612141565b60018192509250505b9250929050565b60006121548484611d2d565b90507fffffffffffffffffffffffffffffffffffffffffffffffffffffffffffffffff81146121d657818110156121c6578281836040517ffb8f41b20000000000000000000000000000000000000000000000000000000081526004016121bd93929190613f50565b60405180910390fd5b6121d584848484036000612456565b5b50505050565b600073ffffffffffffffffffffffffffffffffffffffff168373ffffffffffffffffffffffffffffffffffffffff160361224e5760006040517f96c6fd1e0000000000000000000000000000000000000000000000000000000081526004016122459190613730565b60405180910390fd5b600073ffffffffffffffffffffffffffffffffffffffff168273ffffffffffffffffffffffffffffffffffffffff16036122c05760006040517fec442f050000000000000000000000000000000000000000000000000000000081526004016122b79190613730565b60405180910390fd5b6122cb83838361263c565b505050565b600073ffffffffffffffffffffffffffffffffffffffff168273ffffffffffffffffffffffffffffffffffffffff16036123425760006040517f96c6fd1e0000000000000000000000000000000000000000000000000000000081526004016123399190613730565b60405180910390fd5b61234e8260008361263c565b5050565b60007ff0c57e16840df040f15088dc2f81fe391c3923bec73e23a9662efc9c229c6a00905090565b61238261287b565b61238c82826128bb565b5050565b60008054906101000a900460ff166123dd576040517f08c379a00000000000000000000000000000000000000000000000000000000081526004016123d490613fd3565b60405180910390fd5b6123e784846128f8565b8373ffffffffffffffffffffffffffffffffffffffff163373ffffffffffffffffffffffffffffffffffffffff167f0e9905d62635f049c2f4e11678ebf9dc3d1f8c4a653e290759b772e47ba00d0085858560405161244893929190613c55565b60405180910390a350505050565b60006124606120d7565b9050600073ffffffffffffffffffffffffffffffffffffffff168573ffffffffffffffffffffffffffffffffffffffff16036124d45760006040517fe602df050000000000000000000000000000000000000000000000000000000081526004016124cb9190613730565b60405180910390fd5b600073ffffffffffffffffffffffffffffffffffffffff168473ffffffffffffffffffffffffffffffffffffffff16036125465760006040517f94280d6200000000000000000000000000000000000000000000000000000000815260040161253d9190613730565b60405180910390fd5b828160010160008773ffffffffffffffffffffffffffffffffffffffff1673ffffffffffffffffffffffffffffffffffffffff16815260200190815260200160002060008673ffffffffffffffffffffffffffffffffffffffff1673ffffffffffffffffffffffffffffffffffffffff168152602001908152602001600020819055508115612635578373ffffffffffffffffffffffffffffffffffffffff168573ffffffffffffffffffffffffffffffffffffffff167f8c5be1e5ebec7d5bd14f71427d1e84f3dd0314c0f7b2291e5b200ac8c7c3b9258560405161262c9190612dec565b60405180910390a35b5050505050565b60006126466120d7565b9050600073ffffffffffffffffffffffffffffffffffffffff168473ffffffffffffffffffffffffffffffffffffffff160361269c57818160020160008282546126909190613ff3565b92505081905550612775565b60008160000160008673ffffffffffffffffffffffffffffffffffffffff1673ffffffffffffffffffffffffffffffffffffffff1681526020019081526020016000205490508281101561272b578481846040517fe450d38c00000000000000000000000000000000000000000000000000000000815260040161272293929190613f50565b60405180910390fd5b8281038260000160008773ffffffffffffffffffffffffffffffffffffffff1673ffffffffffffffffffffffffffffffffffffffff16815260200190815260200160002081905550505b600073ffffffffffffffffffffffffffffffffffffffff168373ffffffffffffffffffffffffffffffffffffffff16036127c057818160020160008282540392505081905550612810565b818160000160008573ffffffffffffffffffffffffffffffffffffffff1673ffffffffffffffffffffffffffffffffffffffff168152602001908152602001600020600082825401925050819055505b8273ffffffffffffffffffffffffffffffffffffffff168473ffffffffffffffffffffffffffffffffffffffff167fddf252ad1be2c89b69c2b068fc378daa952ba7f163c4a11628f55a4df523b3ef8460405161286d9190612dec565b60405180910390a350505050565b61288361297a565b6128b9576040517fd7e6bcf800000000000000000000000000000000000000000000000000000000815260040160405180910390fd5b565b6128c361287b565b60006128cd6120d7565b9050828160030190816128e09190613a25565b50818160040190816128f29190613a25565b50505050565b600073ffffffffffffffffffffffffffffffffffffffff168273ffffffffffffffffffffffffffffffffffffffff160361296a5760006040517fec442f050000000000000000000000000000000000000000000000000000000081526004016129619190613730565b60405180910390fd5b6129766000838361263c565b5050565b6000612984612352565b60000160089054906101000a900460ff16905090565b5080546129a690613852565b6000825580601f106129b857506129d7565b601f0160209004906000526020600020908101906129d691906129da565b5b50565b5b808211156129f35760008160009055506001016129db565b5090565b6000604051905090565b600080fd5b600080fd5b6000819050919050565b612a1e81612a0b565b8114612a2957600080fd5b50565b600081359050612a3b81612a15565b92915050565b600080fd5b600080fd5b600080fd5b60008083601f840112612a6657612a65612a41565b5b8235905067ffffffffffffffff811115612a8357612a82612a46565b5b602083019150836001820283011115612a9f57612a9e612a4b565b5b9250929050565b60008060008060608587031215612ac057612abf612a01565b5b6000612ace87828801612a2c565b945050602085013567ffffffffffffffff811115612aef57612aee612a06565b5b612afb87828801612a50565b93509350506040612b0e87828801612a2c565b91505092959194509250565b600081519050919050565b600082825260208201905092915050565b60005b83811015612b54578082015181840152602081019050612b39565b60008484015250505050565b6000601f19601f8301169050919050565b6000612b7c82612b1a565b612b868185612b25565b9350612b96818560208601612b36565b612b9f81612b60565b840191505092915050565b60006020820190508181036000830152612bc48184612b71565b905092915050565b600073ffffffffffffffffffffffffffffffffffffffff82169050919050565b6000612bf782612bcc565b9050919050565b612c0781612bec565b8114612c1257600080fd5b50565b600081359050612c2481612bfe565b92915050565b6000819050919050565b612c3d81612c2a565b8114612c4857600080fd5b50565b600081359050612c5a81612c34565b92915050565b60008060408385031215612c7757612c76612a01565b5b6000612c8585828601612c15565b9250506020612c9685828601612c4b565b9150509250929050565b60008115159050919050565b612cb581612ca0565b82525050565b6000602082019050612cd06000830184612cac565b92915050565b60008083601f840112612cec57612ceb612a41565b5b8235905067ffffffffffffffff811115612d0957612d08612a46565b5b602083019150836001820283011115612d2557612d24612a4b565b5b9250929050565b600080600080600060808688031215612d4857612d47612a01565b5b6000612d5688828901612c15565b9550506020612d6788828901612c15565b9450506040612d7888828901612c4b565b935050606086013567ffffffffffffffff811115612d9957612d98612a06565b5b612da588828901612cd6565b92509250509295509295909350565b612dbd81612c2a565b82525050565b6000604082019050612dd86000830185612cac565b612de56020830184612db4565b9392505050565b6000602082019050612e016000830184612db4565b92915050565b60008060008060608587031215612e2157612e20612a01565b5b6000612e2f87828801612c15565b9450506020612e4087828801612c4b565b935050604085013567ffffffffffffffff811115612e6157612e60612a06565b5b612e6d87828801612cd6565b925092505092959194509250565b600080600060608486031215612e9457612e93612a01565b5b6000612ea286828701612c15565b9350506020612eb386828701612c15565b9250506040612ec486828701612c4b565b9150509250925092565b6000819050919050565b6000612ef3612eee612ee984612bcc565b612ece565b612bcc565b9050919050565b6000612f0582612ed8565b9050919050565b6000612f1782612efa565b9050919050565b612f2781612f0c565b82525050565b6000602082019050612f426000830184612f1e565b92915050565b60008060008060008060808789031215612f6557612f64612a01565b5b6000612f7389828a01612c15565b9650506020612f8489828a01612c4b565b955050604087013567ffffffffffffffff811115612fa557612fa4612a06565b5b612fb189828a01612cd6565b9450945050606087013567ffffffffffffffff811115612fd457612fd3612a06565b5b612fe089828a01612cd6565b92509250509295509295509295565b600060ff82169050919050565b61300581612fef565b82525050565b60006020820190506130206000830184612ffc565b92915050565b60006020828403121561303c5761303b612a01565b5b600061304a84828501612c4b565b91505092915050565b600080fd5b7f4e487b7100000000000000000000000000000000000000000000000000000000600052604160045260246000fd5b61309082612b60565b810181811067ffffffffffffffff821117156130af576130ae613058565b5b80604052505050565b60006130c26129f7565b90506130ce8282613087565b919050565b600067ffffffffffffffff8211156130ee576130ed613058565b5b6130f782612b60565b9050602081019050919050565b82818337600083830152505050565b6000613126613121846130d3565b6130b8565b90508281526020810184848401111561314257613141613053565b5b61314d848285613104565b509392505050565b600082601f83011261316a57613169612a41565b5b813561317a848260208601613113565b91505092915050565b600080600080600080600060e0888a0312156131a2576131a1612a01565b5b60006131b08a828b01612a2c565b975050602088013567ffffffffffffffff8111156131d1576131d0612a06565b5b6131dd8a828b01613155565b965050604088013567ffffffffffffffff8111156131fe576131fd612a06565b5b61320a8a828b01613155565b955050606061321b8a828b01612c15565b945050608061322c8a828b01612c15565b93505060a061323d8a828b01612c15565b92505060c061324e8a828b01612c4b565b91505092959891949750929550565b60006020828403121561327357613272612a01565b5b600061328184828501612c15565b91505092915050565b600081519050919050565b600082825260208201905092915050565b6000819050602082019050919050565b6132bf81612a0b565b82525050565b60006132d183836132b6565b60208301905092915050565b6000602082019050919050565b60006132f58261328a565b6132ff8185613295565b935061330a836132a6565b8060005b8381101561333b57815161332288826132c5565b975061332d836132dd565b92505060018101905061330e565b5085935050505092915050565b6000602082019050818103600083015261336281846132ea565b905092915050565b60008060008060008060008060a0898b03121561338a57613389612a01565b5b60006133988b828c01612c15565b985050602089013567ffffffffffffffff8111156133b9576133b8612a06565b5b6133c58b828c01612a50565b9750975050604089013567ffffffffffffffff8111156133e8576133e7612a06565b5b6133f48b828c01612cd6565b955095505060606134078b828c01612c4b565b935050608089013567ffffffffffffffff81111561342857613427612a06565b5b6134348b828c01612cd6565b92509250509295985092959890939650565b60006020828403121561345c5761345b612a01565b5b600061346a84828501612a2c565b91505092915050565b61347c81612a0b565b82525050565b6000606082019050818103600083015261349c8186612b71565b90506134ab6020830185613473565b6134b86040830184612db4565b949350505050565b60008060008060008060006080888a0312156134df576134de612a01565b5b600088013567ffffffffffffffff8111156134fd576134fc612a06565b5b6135098a828b01612a50565b9750975050602088013567ffffffffffffffff81111561352c5761352b612a06565b5b6135388a828b01612cd6565b9550955050604061354b8a828b01612c4b565b935050606088013567ffffffffffffffff81111561356c5761356b612a06565b5b6135788a828b01612cd6565b925092505092959891949750929550565b600061359482612efa565b9050919050565b6135a481613589565b82525050565b60006020820190506135bf600083018461359b565b92915050565b600080604083850312156135dc576135db612a01565b5b60006135ea85828601612c15565b92505060206135fb85828601612c15565b9150509250929050565b60008060006040848603121561361e5761361d612a01565b5b600061362c86828701612c4b565b935050602084013567ffffffffffffffff81111561364d5761364c612a06565b5b61365986828701612cd6565b92509250509250925092565b600080600080600080600060a0888a03121561368457613683612a01565b5b60006136928a828b01612c15565b97505060206136a38a828b01612c15565b96505060406136b48a828b01612c4b565b955050606088013567ffffffffffffffff8111156136d5576136d4612a06565b5b6136e18a828b01612cd6565b9450945050608088013567ffffffffffffffff81111561370457613703612a06565b5b6137108a828b01612cd6565b925092505092959891949750929550565b61372a81612bec565b82525050565b60006020820190506137456000830184613721565b92915050565b7f5a65726f2076616c7565206973206e6f7420616c6c6f77656400000000000000600082015250565b6000613781601983612b25565b915061378c8261374b565b602082019050919050565b600060208201905081810360008301526137b081613774565b9050919050565b7f53686f756c64206e6f74206265206120656d7074792075726900000000000000600082015250565b60006137ed601983612b25565b91506137f8826137b7565b602082019050919050565b6000602082019050818103600083015261381c816137e0565b9050919050565b7f4e487b7100000000000000000000000000000000000000000000000000000000600052602260045260246000fd5b6000600282049050600182168061386a57607f821691505b60208210810361387d5761387c613823565b5b50919050565b60008190508160005260206000209050919050565b60006020601f8301049050919050565b600082821b905092915050565b6000600883026138e57fffffffffffffffffffffffffffffffffffffffffffffffffffffffffffffffff826138a8565b6138ef86836138a8565b95508019841693508086168417925050509392505050565b600061392261391d61391884612c2a565b612ece565b612c2a565b9050919050565b6000819050919050565b61393c83613907565b61395061394882613929565b8484546138b5565b825550505050565b600090565b613965613958565b613970818484613933565b505050565b5b818110156139945761398960008261395d565b600181019050613976565b5050565b601f8211156139d9576139aa81613883565b6139b384613898565b810160208510156139c2578190505b6139d66139ce85613898565b830182613975565b50505b505050565b600082821c905092915050565b60006139fc600019846008026139de565b1980831691505092915050565b6000613a1583836139eb565b9150826002028217905092915050565b613a2e82612b1a565b67ffffffffffffffff811115613a4757613a46613058565b5b613a518254613852565b613a5c828285613998565b600060209050601f831160018114613a8f5760008415613a7d578287015190505b613a878582613a09565b865550613aef565b601f198416613a9d86613883565b60005b82811015613ac557848901518255600182019150602085019450602081019050613aa0565b86831015613ae25784890151613ade601f8916826139eb565b8355505b6001600288020188555050505b505050505050565b6000613b038385612b25565b9350613b10838584613104565b613b1983612b60565b840190509392505050565b60006040820190508181036000830152613b3f818587613af7565b9050613b4e6020830184613473565b949350505050565b600082825260208201905092915050565b6000613b738385613b56565b9350613b80838584613104565b613b8983612b60565b840190509392505050565b6000608082019050613ba96000830189613721565b613bb66020830188612db4565b8181036040830152613bc9818688613b67565b90508181036060830152613bde818486613b67565b9050979650505050505050565b6000819050919050565b600067ffffffffffffffff82169050919050565b6000613c24613c1f613c1a84613beb565b612ece565b613bf5565b9050919050565b613c3481613c09565b82525050565b6000602082019050613c4f6000830184613c2b565b92915050565b6000604082019050613c6a6000830186612db4565b8181036020830152613c7d818486613b67565b9050949350505050565b7f416c72656164792066696e616c697a6564000000000000000000000000000000600082015250565b6000613cbd601183612b25565b9150613cc882613c87565b602082019050919050565b60006020820190508181036000830152613cec81613cb0565b9050919050565b7f4e487b7100000000000000000000000000000000000000000000000000000000600052601160045260246000fd5b6000613d2d82612c2a565b9150613d3883612c2a565b9250828203905081811115613d5057613d4f613cf3565b5b92915050565b600060a082019050613d6b600083018b613721565b8181036020830152613d7e81898b613af7565b90508181036040830152613d93818789613b67565b9050613da26060830186612db4565b8181036080830152613db5818486613b67565b90509998505050505050505050565b7f446f63756d656e742073686f756c642062652065786973746564000000000000600082015250565b6000613dfa601a83612b25565b9150613e0582613dc4565b602082019050919050565b60006020820190508181036000830152613e2981613ded565b9050919050565b60008154613e3d81613852565b613e478186612b25565b94506001821660008114613e625760018114613e7857613eab565b60ff198316865281151560200286019350613eab565b613e8185613883565b60005b83811015613ea357815481890152600182019150602081019050613e84565b808801955050505b50505092915050565b60006040820190508181036000830152613ece8185613e30565b9050613edd6020830184613473565b9392505050565b7f43757272656e7420636f6e74726f6c6c65720000000000000000000000000000600082015250565b6000613f1a601283612b25565b9150613f2582613ee4565b602082019050919050565b60006020820190508181036000830152613f4981613f0d565b9050919050565b6000606082019050613f656000830186613721565b613f726020830185612db4565b613f7f6040830184612db4565b949350505050565b7f49737375616e636520697320636c6f7365640000000000000000000000000000600082015250565b6000613fbd601283612b25565b9150613fc882613f87565b602082019050919050565b60006020820190508181036000830152613fec81613fb0565b9050919050565b6000613ffe82612c2a565b915061400983612c2a565b925082820190508082111561402157614020613cf3565b5b9291505056fea26469706673582212209e24bbf88fce0c67ca7ceb1356cd01a7440346be196b47c5d378dec7c5f2e28e64736f6c63430008140033",
  "linkReferences": {},
  "deployedLinkReferences": {}
}