{
  "_format": "hh-sol-artifact-1",
  "contractName": "PlatformEntryPoint",
  "sourceName": "contracts/platformEntryPoint.sol",
  "abi": [
    {
      "inputs": [
        {
          "internalType": "address",
          "name": "_tokenFactoryImplementation",
          "type": "address"
        },
        {
          "internalType": "address",
          "name": "_tokenImplementation",
          "type": "address"
        }
      ],
      "stateMutability": "nonpayable",
      "type": "constructor"
    },
    {
      "inputs": [],
      "name": "ERC1167FailedCreateClone",
      "type": "error"
    },
    {
      "anonymous": false,
      "inputs": [
        {
          "indexed": false,
          "internalType": "address",
          "name": "contractAddress",
          "type": "address"
        }
      ],
      "name": "FactoryCreated",
      "type": "event"
    },
    {
      "inputs": [
        {
          "internalType": "contract AssetTokenFactory",
          "name": "factory",
          "type": "address"
        },
        {
          "internalType": "address",
          "name": "implementation",
          "type": "address"
        },
        {
          "internalType": "string",
          "name": "symbol",
          "type": "string"
        }
      ],
      "name": "addERC20PaymentMethod",
      "outputs": [],
      "stateMutability": "nonpayable",
      "type": "function"
    },
    {
      "inputs": [
        {
          "internalType": "contract AssetTokenFactory",
          "name": "factory",
          "type": "address"
        },
        {
          "internalType": "bytes32",
          "name": "_salt",
          "type": "bytes32"
        },
        {
          "internalType": "address",
          "name": "_interchainTokenServiceAddress",
          "type": "address"
        },
        {
          "internalType": "string",
          "name": "_tokenName",
          "type": "string"
        },
        {
          "internalType": "string",
          "name": "_tokenSymbol",
          "type": "string"
        },
        {
          "internalType": "uint256",
          "name": "_tokenOfferingPrice",
          "type": "uint256"
        }
      ],
      "name": "createToken",
      "outputs": [],
      "stateMutability": "nonpayable",
      "type": "function"
    },
    {
      "inputs": [
        {
          "internalType": "address",
          "name": "_assetAdmin",
          "type": "address"
        },
        {
          "internalType": "address",
          "name": "_tokenController",
          "type": "address"
        },
        {
          "internalType": "address",
          "name": "_treasury",
          "type": "address"
        }
      ],
      "name": "createTokenFactory",
      "outputs": [],
      "stateMutability": "nonpayable",
      "type": "function"
    },
    {
      "inputs": [
        {
          "internalType": "contract AssetTokenFactory",
          "name": "factory",
          "type": "address"
        },
        {
          "internalType": "address",
          "name": "token",
          "type": "address"
        },
        {
          "internalType": "address",
          "name": "destinationWallet",
          "type": "address"
        },
        {
          "internalType": "uint256",
          "name": "amount",
          "type": "uint256"
        },
        {
          "internalType": "bytes",
          "name": "_data",
          "type": "bytes"
        }
      ],
      "name": "issueToken",
      "outputs": [],
      "stateMutability": "nonpayable",
      "type": "function"
    },
    {
      "inputs": [
        {
          "internalType": "contract AssetTokenFactory",
          "name": "factory",
          "type": "address"
        },
        {
          "internalType": "address",
          "name": "implementation",
          "type": "address"
        }
      ],
      "name": "removeERC20PaymentMethod",
      "outputs": [],
      "stateMutability": "nonpayable",
      "type": "function"
    },
    {
      "inputs": [],
      "name": "tokenFactoryImplementation",
      "outputs": [
        {
          "internalType": "address",
          "name": "",
          "type": "address"
        }
      ],
      "stateMutability": "view",
      "type": "function"
    },
    {
      "inputs": [],
      "name": "tokenImplementation",
      "outputs": [
        {
          "internalType": "address",
          "name": "",
          "type": "address"
        }
      ],
      "stateMutability": "view",
      "type": "function"
    }
  ],
  "bytecode": "0x60806040523480156200001157600080fd5b50604051620011143803806200111483398181016040528101906200003791906200012a565b816000806101000a81548173ffffffffffffffffffffffffffffffffffffffff021916908373ffffffffffffffffffffffffffffffffffffffff16021790555080600160006101000a81548173ffffffffffffffffffffffffffffffffffffffff021916908373ffffffffffffffffffffffffffffffffffffffff160217905550505062000171565b600080fd5b600073ffffffffffffffffffffffffffffffffffffffff82169050919050565b6000620000f282620000c5565b9050919050565b6200010481620000e5565b81146200011057600080fd5b50565b6000815190506200012481620000f9565b92915050565b60008060408385031215620001445762000143620000c0565b5b6000620001548582860162000113565b9250506020620001678582860162000113565b9150509250929050565b610f9380620001816000396000f3fe608060405234801561001057600080fd5b506004361061007d5760003560e01c80635acdcda21161005b5780635acdcda2146100d8578063c1bb2fa1146100f6578063e566640714610112578063f8d543091461012e5761007d565b80632f3a3d5d146100825780633f9885e8146100a0578063568b5c8a146100bc575b600080fd5b61008a61014a565b6040516100979190610802565b60405180910390f35b6100ba60048036038101906100b59190610a4d565b610170565b005b6100d660048036038101906100d19190610b72565b610293565b005b6100e06103b6565b6040516100ed9190610802565b60405180910390f35b610110600480360381019061010b9190610c0c565b6103da565b005b61012c60048036038101906101279190610c7b565b6104f4565b005b61014860048036038101906101439190610cbb565b61060b565b005b600160009054906101000a900473ffffffffffffffffffffffffffffffffffffffff1681565b858073ffffffffffffffffffffffffffffffffffffffff16638da5cb5b6040518163ffffffff1660e01b8152600401602060405180830381865afa1580156101bc573d6000803e3d6000fd5b505050506040513d601f19601f820116820180604052508101906101e09190610d23565b73ffffffffffffffffffffffffffffffffffffffff163373ffffffffffffffffffffffffffffffffffffffff161461021757600080fd5b8673ffffffffffffffffffffffffffffffffffffffff1663823e78af87878787876040518663ffffffff1660e01b8152600401610258959493929190610ded565b600060405180830381600087803b15801561027257600080fd5b505af1158015610286573d6000803e3d6000fd5b5050505050505050505050565b858073ffffffffffffffffffffffffffffffffffffffff16638da5cb5b6040518163ffffffff1660e01b8152600401602060405180830381865afa1580156102df573d6000803e3d6000fd5b505050506040513d601f19601f820116820180604052508101906103039190610d23565b73ffffffffffffffffffffffffffffffffffffffff163373ffffffffffffffffffffffffffffffffffffffff161461033a57600080fd5b8673ffffffffffffffffffffffffffffffffffffffff16635947507987878787876040518663ffffffff1660e01b815260040161037b959493929190610e8c565b600060405180830381600087803b15801561039557600080fd5b505af11580156103a9573d6000803e3d6000fd5b5050505050505050505050565b60008054906101000a900473ffffffffffffffffffffffffffffffffffffffff1681565b828073ffffffffffffffffffffffffffffffffffffffff16638da5cb5b6040518163ffffffff1660e01b8152600401602060405180830381865afa158015610426573d6000803e3d6000fd5b505050506040513d601f19601f8201168201806040525081019061044a9190610d23565b73ffffffffffffffffffffffffffffffffffffffff163373ffffffffffffffffffffffffffffffffffffffff161461048157600080fd5b8373ffffffffffffffffffffffffffffffffffffffff16633d7591c484846040518363ffffffff1660e01b81526004016104bc929190610eda565b600060405180830381600087803b1580156104d657600080fd5b505af11580156104ea573d6000803e3d6000fd5b5050505050505050565b818073ffffffffffffffffffffffffffffffffffffffff16638da5cb5b6040518163ffffffff1660e01b8152600401602060405180830381865afa158015610540573d6000803e3d6000fd5b505050506040513d601f19601f820116820180604052508101906105649190610d23565b73ffffffffffffffffffffffffffffffffffffffff163373ffffffffffffffffffffffffffffffffffffffff161461059b57600080fd5b8273ffffffffffffffffffffffffffffffffffffffff1663804f8e66836040518263ffffffff1660e01b81526004016105d49190610802565b600060405180830381600087803b1580156105ee57600080fd5b505af1158015610602573d6000803e3d6000fd5b50505050505050565b600061063660008054906101000a900473ffffffffffffffffffffffffffffffffffffffff16610710565b905060008190508073ffffffffffffffffffffffffffffffffffffffff16631459457a86600160009054906101000a900473ffffffffffffffffffffffffffffffffffffffff168787336040518663ffffffff1660e01b81526004016106a0959493929190610f0a565b600060405180830381600087803b1580156106ba57600080fd5b505af11580156106ce573d6000803e3d6000fd5b505050507fcd011e85967592f54bff824c845ac9b3e769e0f54ba0d66b4d76ac0f77fa2a00826040516107019190610802565b60405180910390a15050505050565b6000763d602d80600a3d3981f3363d3d373d3d3d363d730000008260601b60e81c176000526e5af43d82803e903d91602b57fd5bf38260781b17602052603760096000f09050600073ffffffffffffffffffffffffffffffffffffffff168173ffffffffffffffffffffffffffffffffffffffff16036107bc576040517fc2f868f400000000000000000000000000000000000000000000000000000000815260040160405180910390fd5b919050565b600073ffffffffffffffffffffffffffffffffffffffff82169050919050565b60006107ec826107c1565b9050919050565b6107fc816107e1565b82525050565b600060208201905061081760008301846107f3565b92915050565b6000604051905090565b600080fd5b600080fd5b600061083c826107e1565b9050919050565b61084c81610831565b811461085757600080fd5b50565b60008135905061086981610843565b92915050565b6000819050919050565b6108828161086f565b811461088d57600080fd5b50565b60008135905061089f81610879565b92915050565b6108ae816107e1565b81146108b957600080fd5b50565b6000813590506108cb816108a5565b92915050565b600080fd5b600080fd5b6000601f19601f8301169050919050565b7f4e487b7100000000000000000000000000000000000000000000000000000000600052604160045260246000fd5b610924826108db565b810181811067ffffffffffffffff82111715610943576109426108ec565b5b80604052505050565b600061095661081d565b9050610962828261091b565b919050565b600067ffffffffffffffff821115610982576109816108ec565b5b61098b826108db565b9050602081019050919050565b82818337600083830152505050565b60006109ba6109b584610967565b61094c565b9050828152602081018484840111156109d6576109d56108d6565b5b6109e1848285610998565b509392505050565b600082601f8301126109fe576109fd6108d1565b5b8135610a0e8482602086016109a7565b91505092915050565b6000819050919050565b610a2a81610a17565b8114610a3557600080fd5b50565b600081359050610a4781610a21565b92915050565b60008060008060008060c08789031215610a6a57610a69610827565b5b6000610a7889828a0161085a565b9650506020610a8989828a01610890565b9550506040610a9a89828a016108bc565b945050606087013567ffffffffffffffff811115610abb57610aba61082c565b5b610ac789828a016109e9565b935050608087013567ffffffffffffffff811115610ae857610ae761082c565b5b610af489828a016109e9565b92505060a0610b0589828a01610a38565b9150509295509295509295565b600080fd5b600080fd5b60008083601f840112610b3257610b316108d1565b5b8235905067ffffffffffffffff811115610b4f57610b4e610b12565b5b602083019150836001820283011115610b6b57610b6a610b17565b5b9250929050565b60008060008060008060a08789031215610b8f57610b8e610827565b5b6000610b9d89828a0161085a565b9650506020610bae89828a016108bc565b9550506040610bbf89828a016108bc565b9450506060610bd089828a01610a38565b935050608087013567ffffffffffffffff811115610bf157610bf061082c565b5b610bfd89828a01610b1c565b92509250509295509295509295565b600080600060608486031215610c2557610c24610827565b5b6000610c338682870161085a565b9350506020610c44868287016108bc565b925050604084013567ffffffffffffffff811115610c6557610c6461082c565b5b610c71868287016109e9565b9150509250925092565b60008060408385031215610c9257610c91610827565b5b6000610ca08582860161085a565b9250506020610cb1858286016108bc565b9150509250929050565b600080600060608486031215610cd457610cd3610827565b5b6000610ce2868287016108bc565b9350506020610cf3868287016108bc565b9250506040610d04868287016108bc565b9150509250925092565b600081519050610d1d816108a5565b92915050565b600060208284031215610d3957610d38610827565b5b6000610d4784828501610d0e565b91505092915050565b610d598161086f565b82525050565b600081519050919050565b600082825260208201905092915050565b60005b83811015610d99578082015181840152602081019050610d7e565b60008484015250505050565b6000610db082610d5f565b610dba8185610d6a565b9350610dca818560208601610d7b565b610dd3816108db565b840191505092915050565b610de781610a17565b82525050565b600060a082019050610e026000830188610d50565b610e0f60208301876107f3565b8181036040830152610e218186610da5565b90508181036060830152610e358185610da5565b9050610e446080830184610dde565b9695505050505050565b600082825260208201905092915050565b6000610e6b8385610e4e565b9350610e78838584610998565b610e81836108db565b840190509392505050565b6000608082019050610ea160008301886107f3565b610eae60208301876107f3565b610ebb6040830186610dde565b8181036060830152610ece818486610e5f565b90509695505050505050565b6000604082019050610eef60008301856107f3565b8181036020830152610f018184610da5565b90509392505050565b600060a082019050610f1f60008301886107f3565b610f2c60208301876107f3565b610f3960408301866107f3565b610f4660608301856107f3565b610f5360808301846107f3565b969550505050505056fea2646970667358221220b4aec9554578a35ff0ec2777c1a331f8a1b052a8fa0801337a43f17c24dda10464736f6c63430008140033",
  "linkReferences": {},
  "deployedLinkReferences": {}
}